{
	"compilerInput": "{\"language\":\"Solidity\",\"sources\":{\"Verification.sol\":{\"content\":\"// SPDX-License-Identifier: MIT\\r\\npragma solidity ^0.8.19;\\r\\n\\r\\ncontract DocumentVerifier {\\r\\n    event VerificationResult(address indexed user, bytes32 digest, bool verified);\\r\\n\\r\\n    function verifySignature(\\r\\n        bytes32 digest,\\r\\n        bytes memory signature,\\r\\n        address user\\r\\n    ) public returns (bool) {\\r\\n        require(user != address(0), \\\"Invalid user address\\\");\\r\\n        \\r\\n        bytes32 ethSignedMessageHash = getEthSignedMessageHash(digest);\\r\\n        address recoveredSigner = recoverSigner(ethSignedMessageHash, signature);\\r\\n        bool isValid = (recoveredSigner == user);\\r\\n        \\r\\n        emit VerificationResult(user, digest, isValid);\\r\\n        return isValid;\\r\\n    }\\r\\n\\r\\n    function getEthSignedMessageHash(bytes32 _messageHash) internal pure returns (bytes32) {\\r\\n        return keccak256(abi.encodePacked(\\\"\\\\x19Ethereum Signed Message:\\\\n32\\\", _messageHash));\\r\\n    }\\r\\n\\r\\n    function recoverSigner(bytes32 _ethSignedMessageHash, bytes memory _signature)\\r\\n        internal\\r\\n        pure\\r\\n        returns (address)\\r\\n    {\\r\\n        require(_signature.length == 65, \\\"Invalid signature length\\\");\\r\\n        \\r\\n        bytes32 r;\\r\\n        bytes32 s;\\r\\n        uint8 v;\\r\\n        \\r\\n        assembly {\\r\\n            r := mload(add(_signature, 32))\\r\\n            s := mload(add(_signature, 64))\\r\\n            v := byte(0, mload(add(_signature, 96)))\\r\\n        }\\r\\n        \\r\\n        if (v < 27) {\\r\\n            v += 27;\\r\\n        }\\r\\n        \\r\\n        require(v == 27 || v == 28, \\\"Invalid signature version\\\");\\r\\n        \\r\\n        return ecrecover(_ethSignedMessageHash, v, r, s);\\r\\n    }\\r\\n}\\r\\n\"}},\"settings\":{\"optimizer\":{\"enabled\":false,\"runs\":200},\"outputSelection\":{\"*\":{\"\":[\"ast\"],\"*\":[\"abi\",\"metadata\",\"devdoc\",\"userdoc\",\"storageLayout\",\"evm.legacyAssembly\",\"evm.bytecode\",\"evm.deployedBytecode\",\"evm.methodIdentifiers\",\"evm.gasEstimates\",\"evm.assembly\"]}},\"remappings\":[]}}",
	"name": "DocumentVerifier",
	"bytecode": {
		"linkReferences": {},
		"object": "6080604052348015600e575f80fd5b5061084e8061001c5f395ff3fe608060405234801561000f575f80fd5b5060043610610029575f3560e01c806331cd41991461002d575b5f80fd5b610047600480360381019061004291906104a3565b61005d565b6040516100549190610529565b60405180910390f35b5f8073ffffffffffffffffffffffffffffffffffffffff168273ffffffffffffffffffffffffffffffffffffffff16036100cc576040517f08c379a00000000000000000000000000000000000000000000000000000000081526004016100c39061059c565b60405180910390fd5b5f6100d685610174565b90505f6100e382866101a3565b90505f8473ffffffffffffffffffffffffffffffffffffffff168273ffffffffffffffffffffffffffffffffffffffff161490508473ffffffffffffffffffffffffffffffffffffffff167fca0a9b8f1b35f1ce4c0aecb7318368b99bbc367e574040ef75360762d43f5787888360405161015f9291906105c9565b60405180910390a28093505050509392505050565b5f816040516020016101869190610664565b604051602081830303815290604052805190602001209050919050565b5f60418251146101e8576040517f08c379a00000000000000000000000000000000000000000000000000000000081526004016101df906106d3565b60405180910390fd5b5f805f602085015192506040850151915060608501515f1a9050601b8160ff16101561021e57601b8161021b919061072a565b90505b601b8160ff1614806102335750601c8160ff16145b610272576040517f08c379a0000000000000000000000000000000000000000000000000000000008152600401610269906107a8565b60405180910390fd5b6001868285856040515f815260200160405260405161029494939291906107d5565b6020604051602081039080840390855afa1580156102b4573d5f803e3d5ffd5b50505060206040510351935050505092915050565b5f604051905090565b5f80fd5b5f80fd5b5f819050919050565b6102ec816102da565b81146102f6575f80fd5b50565b5f81359050610307816102e3565b92915050565b5f80fd5b5f80fd5b5f601f19601f8301169050919050565b7f4e487b71000000000000000000000000000000000000000000000000000000005f52604160045260245ffd5b61035b82610315565b810181811067ffffffffffffffff8211171561037a57610379610325565b5b80604052505050565b5f61038c6102c9565b90506103988282610352565b919050565b5f67ffffffffffffffff8211156103b7576103b6610325565b5b6103c082610315565b9050602081019050919050565b828183375f83830152505050565b5f6103ed6103e88461039d565b610383565b90508281526020810184848401111561040957610408610311565b5b6104148482856103cd565b509392505050565b5f82601f8301126104305761042f61030d565b5b81356104408482602086016103db565b91505092915050565b5f73ffffffffffffffffffffffffffffffffffffffff82169050919050565b5f61047282610449565b9050919050565b61048281610468565b811461048c575f80fd5b50565b5f8135905061049d81610479565b92915050565b5f805f606084860312156104ba576104b96102d2565b5b5f6104c7868287016102f9565b935050602084013567ffffffffffffffff8111156104e8576104e76102d6565b5b6104f48682870161041c565b92505060406105058682870161048f565b9150509250925092565b5f8115159050919050565b6105238161050f565b82525050565b5f60208201905061053c5f83018461051a565b92915050565b5f82825260208201905092915050565b7f496e76616c6964207573657220616464726573730000000000000000000000005f82015250565b5f610586601483610542565b915061059182610552565b602082019050919050565b5f6020820190508181035f8301526105b38161057a565b9050919050565b6105c3816102da565b82525050565b5f6040820190506105dc5f8301856105ba565b6105e9602083018461051a565b9392505050565b5f81905092915050565b7f19457468657265756d205369676e6564204d6573736167653a0a3332000000005f82015250565b5f61062e601c836105f0565b9150610639826105fa565b601c82019050919050565b5f819050919050565b61065e610659826102da565b610644565b82525050565b5f61066e82610622565b915061067a828461064d565b60208201915081905092915050565b7f496e76616c6964207369676e6174757265206c656e67746800000000000000005f82015250565b5f6106bd601883610542565b91506106c882610689565b602082019050919050565b5f6020820190508181035f8301526106ea816106b1565b9050919050565b5f60ff82169050919050565b7f4e487b71000000000000000000000000000000000000000000000000000000005f52601160045260245ffd5b5f610734826106f1565b915061073f836106f1565b9250828201905060ff811115610758576107576106fd565b5b92915050565b7f496e76616c6964207369676e61747572652076657273696f6e000000000000005f82015250565b5f610792601983610542565b915061079d8261075e565b602082019050919050565b5f6020820190508181035f8301526107bf81610786565b9050919050565b6107cf816106f1565b82525050565b5f6080820190506107e85f8301876105ba565b6107f560208301866107c6565b61080260408301856105ba565b61080f60608301846105ba565b9594505050505056fea2646970667358221220b4e35ddc575255af359c4fe979a19bf8b08f600e38c2c61a61dafe9de8e5531c64736f6c634300081a0033",
		"opcodes": "PUSH1 0x80 PUSH1 0x40 MSTORE CALLVALUE DUP1 ISZERO PUSH1 0xE JUMPI PUSH0 DUP1 REVERT JUMPDEST POP PUSH2 0x84E DUP1 PUSH2 0x1C PUSH0 CODECOPY PUSH0 RETURN INVALID PUSH1 0x80 PUSH1 0x40 MSTORE CALLVALUE DUP1 ISZERO PUSH2 0xF JUMPI PUSH0 DUP1 REVERT JUMPDEST POP PUSH1 0x4 CALLDATASIZE LT PUSH2 0x29 JUMPI PUSH0 CALLDATALOAD PUSH1 0xE0 SHR DUP1 PUSH4 0x31CD4199 EQ PUSH2 0x2D JUMPI JUMPDEST PUSH0 DUP1 REVERT JUMPDEST PUSH2 0x47 PUSH1 0x4 DUP1 CALLDATASIZE SUB DUP2 ADD SWAP1 PUSH2 0x42 SWAP2 SWAP1 PUSH2 0x4A3 JUMP JUMPDEST PUSH2 0x5D JUMP JUMPDEST PUSH1 0x40 MLOAD PUSH2 0x54 SWAP2 SWAP1 PUSH2 0x529 JUMP JUMPDEST PUSH1 0x40 MLOAD DUP1 SWAP2 SUB SWAP1 RETURN JUMPDEST PUSH0 DUP1 PUSH20 0xFFFFFFFFFFFFFFFFFFFFFFFFFFFFFFFFFFFFFFFF AND DUP3 PUSH20 0xFFFFFFFFFFFFFFFFFFFFFFFFFFFFFFFFFFFFFFFF AND SUB PUSH2 0xCC JUMPI PUSH1 0x40 MLOAD PUSH32 0x8C379A000000000000000000000000000000000000000000000000000000000 DUP2 MSTORE PUSH1 0x4 ADD PUSH2 0xC3 SWAP1 PUSH2 0x59C JUMP JUMPDEST PUSH1 0x40 MLOAD DUP1 SWAP2 SUB SWAP1 REVERT JUMPDEST PUSH0 PUSH2 0xD6 DUP6 PUSH2 0x174 JUMP JUMPDEST SWAP1 POP PUSH0 PUSH2 0xE3 DUP3 DUP7 PUSH2 0x1A3 JUMP JUMPDEST SWAP1 POP PUSH0 DUP5 PUSH20 0xFFFFFFFFFFFFFFFFFFFFFFFFFFFFFFFFFFFFFFFF AND DUP3 PUSH20 0xFFFFFFFFFFFFFFFFFFFFFFFFFFFFFFFFFFFFFFFF AND EQ SWAP1 POP DUP5 PUSH20 0xFFFFFFFFFFFFFFFFFFFFFFFFFFFFFFFFFFFFFFFF AND PUSH32 0xCA0A9B8F1B35F1CE4C0AECB7318368B99BBC367E574040EF75360762D43F5787 DUP9 DUP4 PUSH1 0x40 MLOAD PUSH2 0x15F SWAP3 SWAP2 SWAP1 PUSH2 0x5C9 JUMP JUMPDEST PUSH1 0x40 MLOAD DUP1 SWAP2 SUB SWAP1 LOG2 DUP1 SWAP4 POP POP POP POP SWAP4 SWAP3 POP POP POP JUMP JUMPDEST PUSH0 DUP2 PUSH1 0x40 MLOAD PUSH1 0x20 ADD PUSH2 0x186 SWAP2 SWAP1 PUSH2 0x664 JUMP JUMPDEST PUSH1 0x40 MLOAD PUSH1 0x20 DUP2 DUP4 SUB SUB DUP2 MSTORE SWAP1 PUSH1 0x40 MSTORE DUP1 MLOAD SWAP1 PUSH1 0x20 ADD KECCAK256 SWAP1 POP SWAP2 SWAP1 POP JUMP JUMPDEST PUSH0 PUSH1 0x41 DUP3 MLOAD EQ PUSH2 0x1E8 JUMPI PUSH1 0x40 MLOAD PUSH32 0x8C379A000000000000000000000000000000000000000000000000000000000 DUP2 MSTORE PUSH1 0x4 ADD PUSH2 0x1DF SWAP1 PUSH2 0x6D3 JUMP JUMPDEST PUSH1 0x40 MLOAD DUP1 SWAP2 SUB SWAP1 REVERT JUMPDEST PUSH0 DUP1 PUSH0 PUSH1 0x20 DUP6 ADD MLOAD SWAP3 POP PUSH1 0x40 DUP6 ADD MLOAD SWAP2 POP PUSH1 0x60 DUP6 ADD MLOAD PUSH0 BYTE SWAP1 POP PUSH1 0x1B DUP2 PUSH1 0xFF AND LT ISZERO PUSH2 0x21E JUMPI PUSH1 0x1B DUP2 PUSH2 0x21B SWAP2 SWAP1 PUSH2 0x72A JUMP JUMPDEST SWAP1 POP JUMPDEST PUSH1 0x1B DUP2 PUSH1 0xFF AND EQ DUP1 PUSH2 0x233 JUMPI POP PUSH1 0x1C DUP2 PUSH1 0xFF AND EQ JUMPDEST PUSH2 0x272 JUMPI PUSH1 0x40 MLOAD PUSH32 0x8C379A000000000000000000000000000000000000000000000000000000000 DUP2 MSTORE PUSH1 0x4 ADD PUSH2 0x269 SWAP1 PUSH2 0x7A8 JUMP JUMPDEST PUSH1 0x40 MLOAD DUP1 SWAP2 SUB SWAP1 REVERT JUMPDEST PUSH1 0x1 DUP7 DUP3 DUP6 DUP6 PUSH1 0x40 MLOAD PUSH0 DUP2 MSTORE PUSH1 0x20 ADD PUSH1 0x40 MSTORE PUSH1 0x40 MLOAD PUSH2 0x294 SWAP5 SWAP4 SWAP3 SWAP2 SWAP1 PUSH2 0x7D5 JUMP JUMPDEST PUSH1 0x20 PUSH1 0x40 MLOAD PUSH1 0x20 DUP2 SUB SWAP1 DUP1 DUP5 SUB SWAP1 DUP6 GAS STATICCALL ISZERO DUP1 ISZERO PUSH2 0x2B4 JUMPI RETURNDATASIZE PUSH0 DUP1 RETURNDATACOPY RETURNDATASIZE PUSH0 REVERT JUMPDEST POP POP POP PUSH1 0x20 PUSH1 0x40 MLOAD SUB MLOAD SWAP4 POP POP POP POP SWAP3 SWAP2 POP POP JUMP JUMPDEST PUSH0 PUSH1 0x40 MLOAD SWAP1 POP SWAP1 JUMP JUMPDEST PUSH0 DUP1 REVERT JUMPDEST PUSH0 DUP1 REVERT JUMPDEST PUSH0 DUP2 SWAP1 POP SWAP2 SWAP1 POP JUMP JUMPDEST PUSH2 0x2EC DUP2 PUSH2 0x2DA JUMP JUMPDEST DUP2 EQ PUSH2 0x2F6 JUMPI PUSH0 DUP1 REVERT JUMPDEST POP JUMP JUMPDEST PUSH0 DUP2 CALLDATALOAD SWAP1 POP PUSH2 0x307 DUP2 PUSH2 0x2E3 JUMP JUMPDEST SWAP3 SWAP2 POP POP JUMP JUMPDEST PUSH0 DUP1 REVERT JUMPDEST PUSH0 DUP1 REVERT JUMPDEST PUSH0 PUSH1 0x1F NOT PUSH1 0x1F DUP4 ADD AND SWAP1 POP SWAP2 SWAP1 POP JUMP JUMPDEST PUSH32 0x4E487B7100000000000000000000000000000000000000000000000000000000 PUSH0 MSTORE PUSH1 0x41 PUSH1 0x4 MSTORE PUSH1 0x24 PUSH0 REVERT JUMPDEST PUSH2 0x35B DUP3 PUSH2 0x315 JUMP JUMPDEST DUP2 ADD DUP2 DUP2 LT PUSH8 0xFFFFFFFFFFFFFFFF DUP3 GT OR ISZERO PUSH2 0x37A JUMPI PUSH2 0x379 PUSH2 0x325 JUMP JUMPDEST JUMPDEST DUP1 PUSH1 0x40 MSTORE POP POP POP JUMP JUMPDEST PUSH0 PUSH2 0x38C PUSH2 0x2C9 JUMP JUMPDEST SWAP1 POP PUSH2 0x398 DUP3 DUP3 PUSH2 0x352 JUMP JUMPDEST SWAP2 SWAP1 POP JUMP JUMPDEST PUSH0 PUSH8 0xFFFFFFFFFFFFFFFF DUP3 GT ISZERO PUSH2 0x3B7 JUMPI PUSH2 0x3B6 PUSH2 0x325 JUMP JUMPDEST JUMPDEST PUSH2 0x3C0 DUP3 PUSH2 0x315 JUMP JUMPDEST SWAP1 POP PUSH1 0x20 DUP2 ADD SWAP1 POP SWAP2 SWAP1 POP JUMP JUMPDEST DUP3 DUP2 DUP4 CALLDATACOPY PUSH0 DUP4 DUP4 ADD MSTORE POP POP POP JUMP JUMPDEST PUSH0 PUSH2 0x3ED PUSH2 0x3E8 DUP5 PUSH2 0x39D JUMP JUMPDEST PUSH2 0x383 JUMP JUMPDEST SWAP1 POP DUP3 DUP2 MSTORE PUSH1 0x20 DUP2 ADD DUP5 DUP5 DUP5 ADD GT ISZERO PUSH2 0x409 JUMPI PUSH2 0x408 PUSH2 0x311 JUMP JUMPDEST JUMPDEST PUSH2 0x414 DUP5 DUP3 DUP6 PUSH2 0x3CD JUMP JUMPDEST POP SWAP4 SWAP3 POP POP POP JUMP JUMPDEST PUSH0 DUP3 PUSH1 0x1F DUP4 ADD SLT PUSH2 0x430 JUMPI PUSH2 0x42F PUSH2 0x30D JUMP JUMPDEST JUMPDEST DUP2 CALLDATALOAD PUSH2 0x440 DUP5 DUP3 PUSH1 0x20 DUP7 ADD PUSH2 0x3DB JUMP JUMPDEST SWAP2 POP POP SWAP3 SWAP2 POP POP JUMP JUMPDEST PUSH0 PUSH20 0xFFFFFFFFFFFFFFFFFFFFFFFFFFFFFFFFFFFFFFFF DUP3 AND SWAP1 POP SWAP2 SWAP1 POP JUMP JUMPDEST PUSH0 PUSH2 0x472 DUP3 PUSH2 0x449 JUMP JUMPDEST SWAP1 POP SWAP2 SWAP1 POP JUMP JUMPDEST PUSH2 0x482 DUP2 PUSH2 0x468 JUMP JUMPDEST DUP2 EQ PUSH2 0x48C JUMPI PUSH0 DUP1 REVERT JUMPDEST POP JUMP JUMPDEST PUSH0 DUP2 CALLDATALOAD SWAP1 POP PUSH2 0x49D DUP2 PUSH2 0x479 JUMP JUMPDEST SWAP3 SWAP2 POP POP JUMP JUMPDEST PUSH0 DUP1 PUSH0 PUSH1 0x60 DUP5 DUP7 SUB SLT ISZERO PUSH2 0x4BA JUMPI PUSH2 0x4B9 PUSH2 0x2D2 JUMP JUMPDEST JUMPDEST PUSH0 PUSH2 0x4C7 DUP7 DUP3 DUP8 ADD PUSH2 0x2F9 JUMP JUMPDEST SWAP4 POP POP PUSH1 0x20 DUP5 ADD CALLDATALOAD PUSH8 0xFFFFFFFFFFFFFFFF DUP2 GT ISZERO PUSH2 0x4E8 JUMPI PUSH2 0x4E7 PUSH2 0x2D6 JUMP JUMPDEST JUMPDEST PUSH2 0x4F4 DUP7 DUP3 DUP8 ADD PUSH2 0x41C JUMP JUMPDEST SWAP3 POP POP PUSH1 0x40 PUSH2 0x505 DUP7 DUP3 DUP8 ADD PUSH2 0x48F JUMP JUMPDEST SWAP2 POP POP SWAP3 POP SWAP3 POP SWAP3 JUMP JUMPDEST PUSH0 DUP2 ISZERO ISZERO SWAP1 POP SWAP2 SWAP1 POP JUMP JUMPDEST PUSH2 0x523 DUP2 PUSH2 0x50F JUMP JUMPDEST DUP3 MSTORE POP POP JUMP JUMPDEST PUSH0 PUSH1 0x20 DUP3 ADD SWAP1 POP PUSH2 0x53C PUSH0 DUP4 ADD DUP5 PUSH2 0x51A JUMP JUMPDEST SWAP3 SWAP2 POP POP JUMP JUMPDEST PUSH0 DUP3 DUP3 MSTORE PUSH1 0x20 DUP3 ADD SWAP1 POP SWAP3 SWAP2 POP POP JUMP JUMPDEST PUSH32 0x496E76616C696420757365722061646472657373000000000000000000000000 PUSH0 DUP3 ADD MSTORE POP JUMP JUMPDEST PUSH0 PUSH2 0x586 PUSH1 0x14 DUP4 PUSH2 0x542 JUMP JUMPDEST SWAP2 POP PUSH2 0x591 DUP3 PUSH2 0x552 JUMP JUMPDEST PUSH1 0x20 DUP3 ADD SWAP1 POP SWAP2 SWAP1 POP JUMP JUMPDEST PUSH0 PUSH1 0x20 DUP3 ADD SWAP1 POP DUP2 DUP2 SUB PUSH0 DUP4 ADD MSTORE PUSH2 0x5B3 DUP2 PUSH2 0x57A JUMP JUMPDEST SWAP1 POP SWAP2 SWAP1 POP JUMP JUMPDEST PUSH2 0x5C3 DUP2 PUSH2 0x2DA JUMP JUMPDEST DUP3 MSTORE POP POP JUMP JUMPDEST PUSH0 PUSH1 0x40 DUP3 ADD SWAP1 POP PUSH2 0x5DC PUSH0 DUP4 ADD DUP6 PUSH2 0x5BA JUMP JUMPDEST PUSH2 0x5E9 PUSH1 0x20 DUP4 ADD DUP5 PUSH2 0x51A JUMP JUMPDEST SWAP4 SWAP3 POP POP POP JUMP JUMPDEST PUSH0 DUP2 SWAP1 POP SWAP3 SWAP2 POP POP JUMP JUMPDEST PUSH32 0x19457468657265756D205369676E6564204D6573736167653A0A333200000000 PUSH0 DUP3 ADD MSTORE POP JUMP JUMPDEST PUSH0 PUSH2 0x62E PUSH1 0x1C DUP4 PUSH2 0x5F0 JUMP JUMPDEST SWAP2 POP PUSH2 0x639 DUP3 PUSH2 0x5FA JUMP JUMPDEST PUSH1 0x1C DUP3 ADD SWAP1 POP SWAP2 SWAP1 POP JUMP JUMPDEST PUSH0 DUP2 SWAP1 POP SWAP2 SWAP1 POP JUMP JUMPDEST PUSH2 0x65E PUSH2 0x659 DUP3 PUSH2 0x2DA JUMP JUMPDEST PUSH2 0x644 JUMP JUMPDEST DUP3 MSTORE POP POP JUMP JUMPDEST PUSH0 PUSH2 0x66E DUP3 PUSH2 0x622 JUMP JUMPDEST SWAP2 POP PUSH2 0x67A DUP3 DUP5 PUSH2 0x64D JUMP JUMPDEST PUSH1 0x20 DUP3 ADD SWAP2 POP DUP2 SWAP1 POP SWAP3 SWAP2 POP POP JUMP JUMPDEST PUSH32 0x496E76616C6964207369676E6174757265206C656E6774680000000000000000 PUSH0 DUP3 ADD MSTORE POP JUMP JUMPDEST PUSH0 PUSH2 0x6BD PUSH1 0x18 DUP4 PUSH2 0x542 JUMP JUMPDEST SWAP2 POP PUSH2 0x6C8 DUP3 PUSH2 0x689 JUMP JUMPDEST PUSH1 0x20 DUP3 ADD SWAP1 POP SWAP2 SWAP1 POP JUMP JUMPDEST PUSH0 PUSH1 0x20 DUP3 ADD SWAP1 POP DUP2 DUP2 SUB PUSH0 DUP4 ADD MSTORE PUSH2 0x6EA DUP2 PUSH2 0x6B1 JUMP JUMPDEST SWAP1 POP SWAP2 SWAP1 POP JUMP JUMPDEST PUSH0 PUSH1 0xFF DUP3 AND SWAP1 POP SWAP2 SWAP1 POP JUMP JUMPDEST PUSH32 0x4E487B7100000000000000000000000000000000000000000000000000000000 PUSH0 MSTORE PUSH1 0x11 PUSH1 0x4 MSTORE PUSH1 0x24 PUSH0 REVERT JUMPDEST PUSH0 PUSH2 0x734 DUP3 PUSH2 0x6F1 JUMP JUMPDEST SWAP2 POP PUSH2 0x73F DUP4 PUSH2 0x6F1 JUMP JUMPDEST SWAP3 POP DUP3 DUP3 ADD SWAP1 POP PUSH1 0xFF DUP2 GT ISZERO PUSH2 0x758 JUMPI PUSH2 0x757 PUSH2 0x6FD JUMP JUMPDEST JUMPDEST SWAP3 SWAP2 POP POP JUMP JUMPDEST PUSH32 0x496E76616C6964207369676E61747572652076657273696F6E00000000000000 PUSH0 DUP3 ADD MSTORE POP JUMP JUMPDEST PUSH0 PUSH2 0x792 PUSH1 0x19 DUP4 PUSH2 0x542 JUMP JUMPDEST SWAP2 POP PUSH2 0x79D DUP3 PUSH2 0x75E JUMP JUMPDEST PUSH1 0x20 DUP3 ADD SWAP1 POP SWAP2 SWAP1 POP JUMP JUMPDEST PUSH0 PUSH1 0x20 DUP3 ADD SWAP1 POP DUP2 DUP2 SUB PUSH0 DUP4 ADD MSTORE PUSH2 0x7BF DUP2 PUSH2 0x786 JUMP JUMPDEST SWAP1 POP SWAP2 SWAP1 POP JUMP JUMPDEST PUSH2 0x7CF DUP2 PUSH2 0x6F1 JUMP JUMPDEST DUP3 MSTORE POP POP JUMP JUMPDEST PUSH0 PUSH1 0x80 DUP3 ADD SWAP1 POP PUSH2 0x7E8 PUSH0 DUP4 ADD DUP8 PUSH2 0x5BA JUMP JUMPDEST PUSH2 0x7F5 PUSH1 0x20 DUP4 ADD DUP7 PUSH2 0x7C6 JUMP JUMPDEST PUSH2 0x802 PUSH1 0x40 DUP4 ADD DUP6 PUSH2 0x5BA JUMP JUMPDEST PUSH2 0x80F PUSH1 0x60 DUP4 ADD DUP5 PUSH2 0x5BA JUMP JUMPDEST SWAP6 SWAP5 POP POP POP POP POP JUMP INVALID LOG2 PUSH5 0x6970667358 0x22 SLT KECCAK256 0xB4 0xE3 TSTORE 0xDC JUMPI MSTORE SSTORE 0xAF CALLDATALOAD SWAP13 0x4F 0xE9 PUSH26 0xA19BF8B08F600E38C2C61A61DAFE9DE8E5531C64736F6C634300 ADDMOD BYTE STOP CALLER "
	},
	"abi": [
		{
			"anonymous": false,
			"inputs": [
				{
					"indexed": true,
					"internalType": "address",
					"name": "user",
					"type": "address"
				},
				{
					"indexed": false,
					"internalType": "bytes32",
					"name": "digest",
					"type": "bytes32"
				},
				{
					"indexed": false,
					"internalType": "bool",
					"name": "verified",
					"type": "bool"
				}
			],
			"name": "VerificationResult",
			"type": "event"
		},
		{
			"inputs": [
				{
					"internalType": "bytes32",
					"name": "digest",
					"type": "bytes32"
				},
				{
					"internalType": "bytes",
					"name": "signature",
					"type": "bytes"
				},
				{
					"internalType": "address",
					"name": "user",
					"type": "address"
				}
			],
			"name": "verifySignature",
			"outputs": [
				{
					"internalType": "bool",
					"name": "",
					"type": "bool"
				}
			],
			"stateMutability": "nonpayable",
			"type": "function"
		}
	],
	"storageLayout": {
		"storage": [],
		"types": null
	},
	"web3Deploy": "var documentverifierContract = new web3.eth.Contract([{\"anonymous\":false,\"inputs\":[{\"indexed\":true,\"internalType\":\"address\",\"name\":\"user\",\"type\":\"address\"},{\"indexed\":false,\"internalType\":\"bytes32\",\"name\":\"digest\",\"type\":\"bytes32\"},{\"indexed\":false,\"internalType\":\"bool\",\"name\":\"verified\",\"type\":\"bool\"}],\"name\":\"VerificationResult\",\"type\":\"event\"},{\"inputs\":[{\"internalType\":\"bytes32\",\"name\":\"digest\",\"type\":\"bytes32\"},{\"internalType\":\"bytes\",\"name\":\"signature\",\"type\":\"bytes\"},{\"internalType\":\"address\",\"name\":\"user\",\"type\":\"address\"}],\"name\":\"verifySignature\",\"outputs\":[{\"internalType\":\"bool\",\"name\":\"\",\"type\":\"bool\"}],\"stateMutability\":\"nonpayable\",\"type\":\"function\"}]);\nvar documentverifier = documentverifierContract.deploy({\n     data: '0x6080604052348015600e575f80fd5b5061084e8061001c5f395ff3fe608060405234801561000f575f80fd5b5060043610610029575f3560e01c806331cd41991461002d575b5f80fd5b610047600480360381019061004291906104a3565b61005d565b6040516100549190610529565b60405180910390f35b5f8073ffffffffffffffffffffffffffffffffffffffff168273ffffffffffffffffffffffffffffffffffffffff16036100cc576040517f08c379a00000000000000000000000000000000000000000000000000000000081526004016100c39061059c565b60405180910390fd5b5f6100d685610174565b90505f6100e382866101a3565b90505f8473ffffffffffffffffffffffffffffffffffffffff168273ffffffffffffffffffffffffffffffffffffffff161490508473ffffffffffffffffffffffffffffffffffffffff167fca0a9b8f1b35f1ce4c0aecb7318368b99bbc367e574040ef75360762d43f5787888360405161015f9291906105c9565b60405180910390a28093505050509392505050565b5f816040516020016101869190610664565b604051602081830303815290604052805190602001209050919050565b5f60418251146101e8576040517f08c379a00000000000000000000000000000000000000000000000000000000081526004016101df906106d3565b60405180910390fd5b5f805f602085015192506040850151915060608501515f1a9050601b8160ff16101561021e57601b8161021b919061072a565b90505b601b8160ff1614806102335750601c8160ff16145b610272576040517f08c379a0000000000000000000000000000000000000000000000000000000008152600401610269906107a8565b60405180910390fd5b6001868285856040515f815260200160405260405161029494939291906107d5565b6020604051602081039080840390855afa1580156102b4573d5f803e3d5ffd5b50505060206040510351935050505092915050565b5f604051905090565b5f80fd5b5f80fd5b5f819050919050565b6102ec816102da565b81146102f6575f80fd5b50565b5f81359050610307816102e3565b92915050565b5f80fd5b5f80fd5b5f601f19601f8301169050919050565b7f4e487b71000000000000000000000000000000000000000000000000000000005f52604160045260245ffd5b61035b82610315565b810181811067ffffffffffffffff8211171561037a57610379610325565b5b80604052505050565b5f61038c6102c9565b90506103988282610352565b919050565b5f67ffffffffffffffff8211156103b7576103b6610325565b5b6103c082610315565b9050602081019050919050565b828183375f83830152505050565b5f6103ed6103e88461039d565b610383565b90508281526020810184848401111561040957610408610311565b5b6104148482856103cd565b509392505050565b5f82601f8301126104305761042f61030d565b5b81356104408482602086016103db565b91505092915050565b5f73ffffffffffffffffffffffffffffffffffffffff82169050919050565b5f61047282610449565b9050919050565b61048281610468565b811461048c575f80fd5b50565b5f8135905061049d81610479565b92915050565b5f805f606084860312156104ba576104b96102d2565b5b5f6104c7868287016102f9565b935050602084013567ffffffffffffffff8111156104e8576104e76102d6565b5b6104f48682870161041c565b92505060406105058682870161048f565b9150509250925092565b5f8115159050919050565b6105238161050f565b82525050565b5f60208201905061053c5f83018461051a565b92915050565b5f82825260208201905092915050565b7f496e76616c6964207573657220616464726573730000000000000000000000005f82015250565b5f610586601483610542565b915061059182610552565b602082019050919050565b5f6020820190508181035f8301526105b38161057a565b9050919050565b6105c3816102da565b82525050565b5f6040820190506105dc5f8301856105ba565b6105e9602083018461051a565b9392505050565b5f81905092915050565b7f19457468657265756d205369676e6564204d6573736167653a0a3332000000005f82015250565b5f61062e601c836105f0565b9150610639826105fa565b601c82019050919050565b5f819050919050565b61065e610659826102da565b610644565b82525050565b5f61066e82610622565b915061067a828461064d565b60208201915081905092915050565b7f496e76616c6964207369676e6174757265206c656e67746800000000000000005f82015250565b5f6106bd601883610542565b91506106c882610689565b602082019050919050565b5f6020820190508181035f8301526106ea816106b1565b9050919050565b5f60ff82169050919050565b7f4e487b71000000000000000000000000000000000000000000000000000000005f52601160045260245ffd5b5f610734826106f1565b915061073f836106f1565b9250828201905060ff811115610758576107576106fd565b5b92915050565b7f496e76616c6964207369676e61747572652076657273696f6e000000000000005f82015250565b5f610792601983610542565b915061079d8261075e565b602082019050919050565b5f6020820190508181035f8301526107bf81610786565b9050919050565b6107cf816106f1565b82525050565b5f6080820190506107e85f8301876105ba565b6107f560208301866107c6565b61080260408301856105ba565b61080f60608301846105ba565b9594505050505056fea2646970667358221220b4e35ddc575255af359c4fe979a19bf8b08f600e38c2c61a61dafe9de8e5531c64736f6c634300081a0033', \n     arguments: [\n     ]\n}).send({\n     from: web3.eth.accounts[0], \n     gas: '4700000'\n   }, function (e, contract){\n    console.log(e, contract);\n    if (typeof contract.address !== 'undefined') {\n         console.log('Contract mined! address: ' + contract.address + ' transactionHash: ' + contract.transactionHash);\n    }\n })",
	"functionHashes": {
		"31cd4199": "verifySignature(bytes32,bytes,address)"
	},
	"gasEstimates": {
		"Creation": {
			"codeDepositCost": "425200",
			"executionCost": "459",
			"totalCost": "425659"
		},
		"External": {
			"verifySignature(bytes32,bytes,address)": "infinite"
		},
		"Internal": {
			"getEthSignedMessageHash(bytes32)": "infinite",
			"recoverSigner(bytes32,bytes memory)": "infinite"
		}
	},
	"devdoc": {
		"kind": "dev",
		"methods": {},
		"version": 1
	},
	"userdoc": {
		"kind": "user",
		"methods": {},
		"version": 1
	},
	"Runtime Bytecode": {
		"immutableReferences": {},
		"linkReferences": {},
		"object": "608060405234801561000f575f80fd5b5060043610610029575f3560e01c806331cd41991461002d575b5f80fd5b610047600480360381019061004291906104a3565b61005d565b6040516100549190610529565b60405180910390f35b5f8073ffffffffffffffffffffffffffffffffffffffff168273ffffffffffffffffffffffffffffffffffffffff16036100cc576040517f08c379a00000000000000000000000000000000000000000000000000000000081526004016100c39061059c565b60405180910390fd5b5f6100d685610174565b90505f6100e382866101a3565b90505f8473ffffffffffffffffffffffffffffffffffffffff168273ffffffffffffffffffffffffffffffffffffffff161490508473ffffffffffffffffffffffffffffffffffffffff167fca0a9b8f1b35f1ce4c0aecb7318368b99bbc367e574040ef75360762d43f5787888360405161015f9291906105c9565b60405180910390a28093505050509392505050565b5f816040516020016101869190610664565b604051602081830303815290604052805190602001209050919050565b5f60418251146101e8576040517f08c379a00000000000000000000000000000000000000000000000000000000081526004016101df906106d3565b60405180910390fd5b5f805f602085015192506040850151915060608501515f1a9050601b8160ff16101561021e57601b8161021b919061072a565b90505b601b8160ff1614806102335750601c8160ff16145b610272576040517f08c379a0000000000000000000000000000000000000000000000000000000008152600401610269906107a8565b60405180910390fd5b6001868285856040515f815260200160405260405161029494939291906107d5565b6020604051602081039080840390855afa1580156102b4573d5f803e3d5ffd5b50505060206040510351935050505092915050565b5f604051905090565b5f80fd5b5f80fd5b5f819050919050565b6102ec816102da565b81146102f6575f80fd5b50565b5f81359050610307816102e3565b92915050565b5f80fd5b5f80fd5b5f601f19601f8301169050919050565b7f4e487b71000000000000000000000000000000000000000000000000000000005f52604160045260245ffd5b61035b82610315565b810181811067ffffffffffffffff8211171561037a57610379610325565b5b80604052505050565b5f61038c6102c9565b90506103988282610352565b919050565b5f67ffffffffffffffff8211156103b7576103b6610325565b5b6103c082610315565b9050602081019050919050565b828183375f83830152505050565b5f6103ed6103e88461039d565b610383565b90508281526020810184848401111561040957610408610311565b5b6104148482856103cd565b509392505050565b5f82601f8301126104305761042f61030d565b5b81356104408482602086016103db565b91505092915050565b5f73ffffffffffffffffffffffffffffffffffffffff82169050919050565b5f61047282610449565b9050919050565b61048281610468565b811461048c575f80fd5b50565b5f8135905061049d81610479565b92915050565b5f805f606084860312156104ba576104b96102d2565b5b5f6104c7868287016102f9565b935050602084013567ffffffffffffffff8111156104e8576104e76102d6565b5b6104f48682870161041c565b92505060406105058682870161048f565b9150509250925092565b5f8115159050919050565b6105238161050f565b82525050565b5f60208201905061053c5f83018461051a565b92915050565b5f82825260208201905092915050565b7f496e76616c6964207573657220616464726573730000000000000000000000005f82015250565b5f610586601483610542565b915061059182610552565b602082019050919050565b5f6020820190508181035f8301526105b38161057a565b9050919050565b6105c3816102da565b82525050565b5f6040820190506105dc5f8301856105ba565b6105e9602083018461051a565b9392505050565b5f81905092915050565b7f19457468657265756d205369676e6564204d6573736167653a0a3332000000005f82015250565b5f61062e601c836105f0565b9150610639826105fa565b601c82019050919050565b5f819050919050565b61065e610659826102da565b610644565b82525050565b5f61066e82610622565b915061067a828461064d565b60208201915081905092915050565b7f496e76616c6964207369676e6174757265206c656e67746800000000000000005f82015250565b5f6106bd601883610542565b91506106c882610689565b602082019050919050565b5f6020820190508181035f8301526106ea816106b1565b9050919050565b5f60ff82169050919050565b7f4e487b71000000000000000000000000000000000000000000000000000000005f52601160045260245ffd5b5f610734826106f1565b915061073f836106f1565b9250828201905060ff811115610758576107576106fd565b5b92915050565b7f496e76616c6964207369676e61747572652076657273696f6e000000000000005f82015250565b5f610792601983610542565b915061079d8261075e565b602082019050919050565b5f6020820190508181035f8301526107bf81610786565b9050919050565b6107cf816106f1565b82525050565b5f6080820190506107e85f8301876105ba565b6107f560208301866107c6565b61080260408301856105ba565b61080f60608301846105ba565b9594505050505056fea2646970667358221220b4e35ddc575255af359c4fe979a19bf8b08f600e38c2c61a61dafe9de8e5531c64736f6c634300081a0033",
		"opcodes": "PUSH1 0x80 PUSH1 0x40 MSTORE CALLVALUE DUP1 ISZERO PUSH2 0xF JUMPI PUSH0 DUP1 REVERT JUMPDEST POP PUSH1 0x4 CALLDATASIZE LT PUSH2 0x29 JUMPI PUSH0 CALLDATALOAD PUSH1 0xE0 SHR DUP1 PUSH4 0x31CD4199 EQ PUSH2 0x2D JUMPI JUMPDEST PUSH0 DUP1 REVERT JUMPDEST PUSH2 0x47 PUSH1 0x4 DUP1 CALLDATASIZE SUB DUP2 ADD SWAP1 PUSH2 0x42 SWAP2 SWAP1 PUSH2 0x4A3 JUMP JUMPDEST PUSH2 0x5D JUMP JUMPDEST PUSH1 0x40 MLOAD PUSH2 0x54 SWAP2 SWAP1 PUSH2 0x529 JUMP JUMPDEST PUSH1 0x40 MLOAD DUP1 SWAP2 SUB SWAP1 RETURN JUMPDEST PUSH0 DUP1 PUSH20 0xFFFFFFFFFFFFFFFFFFFFFFFFFFFFFFFFFFFFFFFF AND DUP3 PUSH20 0xFFFFFFFFFFFFFFFFFFFFFFFFFFFFFFFFFFFFFFFF AND SUB PUSH2 0xCC JUMPI PUSH1 0x40 MLOAD PUSH32 0x8C379A000000000000000000000000000000000000000000000000000000000 DUP2 MSTORE PUSH1 0x4 ADD PUSH2 0xC3 SWAP1 PUSH2 0x59C JUMP JUMPDEST PUSH1 0x40 MLOAD DUP1 SWAP2 SUB SWAP1 REVERT JUMPDEST PUSH0 PUSH2 0xD6 DUP6 PUSH2 0x174 JUMP JUMPDEST SWAP1 POP PUSH0 PUSH2 0xE3 DUP3 DUP7 PUSH2 0x1A3 JUMP JUMPDEST SWAP1 POP PUSH0 DUP5 PUSH20 0xFFFFFFFFFFFFFFFFFFFFFFFFFFFFFFFFFFFFFFFF AND DUP3 PUSH20 0xFFFFFFFFFFFFFFFFFFFFFFFFFFFFFFFFFFFFFFFF AND EQ SWAP1 POP DUP5 PUSH20 0xFFFFFFFFFFFFFFFFFFFFFFFFFFFFFFFFFFFFFFFF AND PUSH32 0xCA0A9B8F1B35F1CE4C0AECB7318368B99BBC367E574040EF75360762D43F5787 DUP9 DUP4 PUSH1 0x40 MLOAD PUSH2 0x15F SWAP3 SWAP2 SWAP1 PUSH2 0x5C9 JUMP JUMPDEST PUSH1 0x40 MLOAD DUP1 SWAP2 SUB SWAP1 LOG2 DUP1 SWAP4 POP POP POP POP SWAP4 SWAP3 POP POP POP JUMP JUMPDEST PUSH0 DUP2 PUSH1 0x40 MLOAD PUSH1 0x20 ADD PUSH2 0x186 SWAP2 SWAP1 PUSH2 0x664 JUMP JUMPDEST PUSH1 0x40 MLOAD PUSH1 0x20 DUP2 DUP4 SUB SUB DUP2 MSTORE SWAP1 PUSH1 0x40 MSTORE DUP1 MLOAD SWAP1 PUSH1 0x20 ADD KECCAK256 SWAP1 POP SWAP2 SWAP1 POP JUMP JUMPDEST PUSH0 PUSH1 0x41 DUP3 MLOAD EQ PUSH2 0x1E8 JUMPI PUSH1 0x40 MLOAD PUSH32 0x8C379A000000000000000000000000000000000000000000000000000000000 DUP2 MSTORE PUSH1 0x4 ADD PUSH2 0x1DF SWAP1 PUSH2 0x6D3 JUMP JUMPDEST PUSH1 0x40 MLOAD DUP1 SWAP2 SUB SWAP1 REVERT JUMPDEST PUSH0 DUP1 PUSH0 PUSH1 0x20 DUP6 ADD MLOAD SWAP3 POP PUSH1 0x40 DUP6 ADD MLOAD SWAP2 POP PUSH1 0x60 DUP6 ADD MLOAD PUSH0 BYTE SWAP1 POP PUSH1 0x1B DUP2 PUSH1 0xFF AND LT ISZERO PUSH2 0x21E JUMPI PUSH1 0x1B DUP2 PUSH2 0x21B SWAP2 SWAP1 PUSH2 0x72A JUMP JUMPDEST SWAP1 POP JUMPDEST PUSH1 0x1B DUP2 PUSH1 0xFF AND EQ DUP1 PUSH2 0x233 JUMPI POP PUSH1 0x1C DUP2 PUSH1 0xFF AND EQ JUMPDEST PUSH2 0x272 JUMPI PUSH1 0x40 MLOAD PUSH32 0x8C379A000000000000000000000000000000000000000000000000000000000 DUP2 MSTORE PUSH1 0x4 ADD PUSH2 0x269 SWAP1 PUSH2 0x7A8 JUMP JUMPDEST PUSH1 0x40 MLOAD DUP1 SWAP2 SUB SWAP1 REVERT JUMPDEST PUSH1 0x1 DUP7 DUP3 DUP6 DUP6 PUSH1 0x40 MLOAD PUSH0 DUP2 MSTORE PUSH1 0x20 ADD PUSH1 0x40 MSTORE PUSH1 0x40 MLOAD PUSH2 0x294 SWAP5 SWAP4 SWAP3 SWAP2 SWAP1 PUSH2 0x7D5 JUMP JUMPDEST PUSH1 0x20 PUSH1 0x40 MLOAD PUSH1 0x20 DUP2 SUB SWAP1 DUP1 DUP5 SUB SWAP1 DUP6 GAS STATICCALL ISZERO DUP1 ISZERO PUSH2 0x2B4 JUMPI RETURNDATASIZE PUSH0 DUP1 RETURNDATACOPY RETURNDATASIZE PUSH0 REVERT JUMPDEST POP POP POP PUSH1 0x20 PUSH1 0x40 MLOAD SUB MLOAD SWAP4 POP POP POP POP SWAP3 SWAP2 POP POP JUMP JUMPDEST PUSH0 PUSH1 0x40 MLOAD SWAP1 POP SWAP1 JUMP JUMPDEST PUSH0 DUP1 REVERT JUMPDEST PUSH0 DUP1 REVERT JUMPDEST PUSH0 DUP2 SWAP1 POP SWAP2 SWAP1 POP JUMP JUMPDEST PUSH2 0x2EC DUP2 PUSH2 0x2DA JUMP JUMPDEST DUP2 EQ PUSH2 0x2F6 JUMPI PUSH0 DUP1 REVERT JUMPDEST POP JUMP JUMPDEST PUSH0 DUP2 CALLDATALOAD SWAP1 POP PUSH2 0x307 DUP2 PUSH2 0x2E3 JUMP JUMPDEST SWAP3 SWAP2 POP POP JUMP JUMPDEST PUSH0 DUP1 REVERT JUMPDEST PUSH0 DUP1 REVERT JUMPDEST PUSH0 PUSH1 0x1F NOT PUSH1 0x1F DUP4 ADD AND SWAP1 POP SWAP2 SWAP1 POP JUMP JUMPDEST PUSH32 0x4E487B7100000000000000000000000000000000000000000000000000000000 PUSH0 MSTORE PUSH1 0x41 PUSH1 0x4 MSTORE PUSH1 0x24 PUSH0 REVERT JUMPDEST PUSH2 0x35B DUP3 PUSH2 0x315 JUMP JUMPDEST DUP2 ADD DUP2 DUP2 LT PUSH8 0xFFFFFFFFFFFFFFFF DUP3 GT OR ISZERO PUSH2 0x37A JUMPI PUSH2 0x379 PUSH2 0x325 JUMP JUMPDEST JUMPDEST DUP1 PUSH1 0x40 MSTORE POP POP POP JUMP JUMPDEST PUSH0 PUSH2 0x38C PUSH2 0x2C9 JUMP JUMPDEST SWAP1 POP PUSH2 0x398 DUP3 DUP3 PUSH2 0x352 JUMP JUMPDEST SWAP2 SWAP1 POP JUMP JUMPDEST PUSH0 PUSH8 0xFFFFFFFFFFFFFFFF DUP3 GT ISZERO PUSH2 0x3B7 JUMPI PUSH2 0x3B6 PUSH2 0x325 JUMP JUMPDEST JUMPDEST PUSH2 0x3C0 DUP3 PUSH2 0x315 JUMP JUMPDEST SWAP1 POP PUSH1 0x20 DUP2 ADD SWAP1 POP SWAP2 SWAP1 POP JUMP JUMPDEST DUP3 DUP2 DUP4 CALLDATACOPY PUSH0 DUP4 DUP4 ADD MSTORE POP POP POP JUMP JUMPDEST PUSH0 PUSH2 0x3ED PUSH2 0x3E8 DUP5 PUSH2 0x39D JUMP JUMPDEST PUSH2 0x383 JUMP JUMPDEST SWAP1 POP DUP3 DUP2 MSTORE PUSH1 0x20 DUP2 ADD DUP5 DUP5 DUP5 ADD GT ISZERO PUSH2 0x409 JUMPI PUSH2 0x408 PUSH2 0x311 JUMP JUMPDEST JUMPDEST PUSH2 0x414 DUP5 DUP3 DUP6 PUSH2 0x3CD JUMP JUMPDEST POP SWAP4 SWAP3 POP POP POP JUMP JUMPDEST PUSH0 DUP3 PUSH1 0x1F DUP4 ADD SLT PUSH2 0x430 JUMPI PUSH2 0x42F PUSH2 0x30D JUMP JUMPDEST JUMPDEST DUP2 CALLDATALOAD PUSH2 0x440 DUP5 DUP3 PUSH1 0x20 DUP7 ADD PUSH2 0x3DB JUMP JUMPDEST SWAP2 POP POP SWAP3 SWAP2 POP POP JUMP JUMPDEST PUSH0 PUSH20 0xFFFFFFFFFFFFFFFFFFFFFFFFFFFFFFFFFFFFFFFF DUP3 AND SWAP1 POP SWAP2 SWAP1 POP JUMP JUMPDEST PUSH0 PUSH2 0x472 DUP3 PUSH2 0x449 JUMP JUMPDEST SWAP1 POP SWAP2 SWAP1 POP JUMP JUMPDEST PUSH2 0x482 DUP2 PUSH2 0x468 JUMP JUMPDEST DUP2 EQ PUSH2 0x48C JUMPI PUSH0 DUP1 REVERT JUMPDEST POP JUMP JUMPDEST PUSH0 DUP2 CALLDATALOAD SWAP1 POP PUSH2 0x49D DUP2 PUSH2 0x479 JUMP JUMPDEST SWAP3 SWAP2 POP POP JUMP JUMPDEST PUSH0 DUP1 PUSH0 PUSH1 0x60 DUP5 DUP7 SUB SLT ISZERO PUSH2 0x4BA JUMPI PUSH2 0x4B9 PUSH2 0x2D2 JUMP JUMPDEST JUMPDEST PUSH0 PUSH2 0x4C7 DUP7 DUP3 DUP8 ADD PUSH2 0x2F9 JUMP JUMPDEST SWAP4 POP POP PUSH1 0x20 DUP5 ADD CALLDATALOAD PUSH8 0xFFFFFFFFFFFFFFFF DUP2 GT ISZERO PUSH2 0x4E8 JUMPI PUSH2 0x4E7 PUSH2 0x2D6 JUMP JUMPDEST JUMPDEST PUSH2 0x4F4 DUP7 DUP3 DUP8 ADD PUSH2 0x41C JUMP JUMPDEST SWAP3 POP POP PUSH1 0x40 PUSH2 0x505 DUP7 DUP3 DUP8 ADD PUSH2 0x48F JUMP JUMPDEST SWAP2 POP POP SWAP3 POP SWAP3 POP SWAP3 JUMP JUMPDEST PUSH0 DUP2 ISZERO ISZERO SWAP1 POP SWAP2 SWAP1 POP JUMP JUMPDEST PUSH2 0x523 DUP2 PUSH2 0x50F JUMP JUMPDEST DUP3 MSTORE POP POP JUMP JUMPDEST PUSH0 PUSH1 0x20 DUP3 ADD SWAP1 POP PUSH2 0x53C PUSH0 DUP4 ADD DUP5 PUSH2 0x51A JUMP JUMPDEST SWAP3 SWAP2 POP POP JUMP JUMPDEST PUSH0 DUP3 DUP3 MSTORE PUSH1 0x20 DUP3 ADD SWAP1 POP SWAP3 SWAP2 POP POP JUMP JUMPDEST PUSH32 0x496E76616C696420757365722061646472657373000000000000000000000000 PUSH0 DUP3 ADD MSTORE POP JUMP JUMPDEST PUSH0 PUSH2 0x586 PUSH1 0x14 DUP4 PUSH2 0x542 JUMP JUMPDEST SWAP2 POP PUSH2 0x591 DUP3 PUSH2 0x552 JUMP JUMPDEST PUSH1 0x20 DUP3 ADD SWAP1 POP SWAP2 SWAP1 POP JUMP JUMPDEST PUSH0 PUSH1 0x20 DUP3 ADD SWAP1 POP DUP2 DUP2 SUB PUSH0 DUP4 ADD MSTORE PUSH2 0x5B3 DUP2 PUSH2 0x57A JUMP JUMPDEST SWAP1 POP SWAP2 SWAP1 POP JUMP JUMPDEST PUSH2 0x5C3 DUP2 PUSH2 0x2DA JUMP JUMPDEST DUP3 MSTORE POP POP JUMP JUMPDEST PUSH0 PUSH1 0x40 DUP3 ADD SWAP1 POP PUSH2 0x5DC PUSH0 DUP4 ADD DUP6 PUSH2 0x5BA JUMP JUMPDEST PUSH2 0x5E9 PUSH1 0x20 DUP4 ADD DUP5 PUSH2 0x51A JUMP JUMPDEST SWAP4 SWAP3 POP POP POP JUMP JUMPDEST PUSH0 DUP2 SWAP1 POP SWAP3 SWAP2 POP POP JUMP JUMPDEST PUSH32 0x19457468657265756D205369676E6564204D6573736167653A0A333200000000 PUSH0 DUP3 ADD MSTORE POP JUMP JUMPDEST PUSH0 PUSH2 0x62E PUSH1 0x1C DUP4 PUSH2 0x5F0 JUMP JUMPDEST SWAP2 POP PUSH2 0x639 DUP3 PUSH2 0x5FA JUMP JUMPDEST PUSH1 0x1C DUP3 ADD SWAP1 POP SWAP2 SWAP1 POP JUMP JUMPDEST PUSH0 DUP2 SWAP1 POP SWAP2 SWAP1 POP JUMP JUMPDEST PUSH2 0x65E PUSH2 0x659 DUP3 PUSH2 0x2DA JUMP JUMPDEST PUSH2 0x644 JUMP JUMPDEST DUP3 MSTORE POP POP JUMP JUMPDEST PUSH0 PUSH2 0x66E DUP3 PUSH2 0x622 JUMP JUMPDEST SWAP2 POP PUSH2 0x67A DUP3 DUP5 PUSH2 0x64D JUMP JUMPDEST PUSH1 0x20 DUP3 ADD SWAP2 POP DUP2 SWAP1 POP SWAP3 SWAP2 POP POP JUMP JUMPDEST PUSH32 0x496E76616C6964207369676E6174757265206C656E6774680000000000000000 PUSH0 DUP3 ADD MSTORE POP JUMP JUMPDEST PUSH0 PUSH2 0x6BD PUSH1 0x18 DUP4 PUSH2 0x542 JUMP JUMPDEST SWAP2 POP PUSH2 0x6C8 DUP3 PUSH2 0x689 JUMP JUMPDEST PUSH1 0x20 DUP3 ADD SWAP1 POP SWAP2 SWAP1 POP JUMP JUMPDEST PUSH0 PUSH1 0x20 DUP3 ADD SWAP1 POP DUP2 DUP2 SUB PUSH0 DUP4 ADD MSTORE PUSH2 0x6EA DUP2 PUSH2 0x6B1 JUMP JUMPDEST SWAP1 POP SWAP2 SWAP1 POP JUMP JUMPDEST PUSH0 PUSH1 0xFF DUP3 AND SWAP1 POP SWAP2 SWAP1 POP JUMP JUMPDEST PUSH32 0x4E487B7100000000000000000000000000000000000000000000000000000000 PUSH0 MSTORE PUSH1 0x11 PUSH1 0x4 MSTORE PUSH1 0x24 PUSH0 REVERT JUMPDEST PUSH0 PUSH2 0x734 DUP3 PUSH2 0x6F1 JUMP JUMPDEST SWAP2 POP PUSH2 0x73F DUP4 PUSH2 0x6F1 JUMP JUMPDEST SWAP3 POP DUP3 DUP3 ADD SWAP1 POP PUSH1 0xFF DUP2 GT ISZERO PUSH2 0x758 JUMPI PUSH2 0x757 PUSH2 0x6FD JUMP JUMPDEST JUMPDEST SWAP3 SWAP2 POP POP JUMP JUMPDEST PUSH32 0x496E76616C6964207369676E61747572652076657273696F6E00000000000000 PUSH0 DUP3 ADD MSTORE POP JUMP JUMPDEST PUSH0 PUSH2 0x792 PUSH1 0x19 DUP4 PUSH2 0x542 JUMP JUMPDEST SWAP2 POP PUSH2 0x79D DUP3 PUSH2 0x75E JUMP JUMPDEST PUSH1 0x20 DUP3 ADD SWAP1 POP SWAP2 SWAP1 POP JUMP JUMPDEST PUSH0 PUSH1 0x20 DUP3 ADD SWAP1 POP DUP2 DUP2 SUB PUSH0 DUP4 ADD MSTORE PUSH2 0x7BF DUP2 PUSH2 0x786 JUMP JUMPDEST SWAP1 POP SWAP2 SWAP1 POP JUMP JUMPDEST PUSH2 0x7CF DUP2 PUSH2 0x6F1 JUMP JUMPDEST DUP3 MSTORE POP POP JUMP JUMPDEST PUSH0 PUSH1 0x80 DUP3 ADD SWAP1 POP PUSH2 0x7E8 PUSH0 DUP4 ADD DUP8 PUSH2 0x5BA JUMP JUMPDEST PUSH2 0x7F5 PUSH1 0x20 DUP4 ADD DUP7 PUSH2 0x7C6 JUMP JUMPDEST PUSH2 0x802 PUSH1 0x40 DUP4 ADD DUP6 PUSH2 0x5BA JUMP JUMPDEST PUSH2 0x80F PUSH1 0x60 DUP4 ADD DUP5 PUSH2 0x5BA JUMP JUMPDEST SWAP6 SWAP5 POP POP POP POP POP JUMP INVALID LOG2 PUSH5 0x6970667358 0x22 SLT KECCAK256 0xB4 0xE3 TSTORE 0xDC JUMPI MSTORE SSTORE 0xAF CALLDATALOAD SWAP13 0x4F 0xE9 PUSH26 0xA19BF8B08F600E38C2C61A61DAFE9DE8E5531C64736F6C634300 ADDMOD BYTE STOP CALLER "
	},
	"Assembly": ".code\n  PUSH 80\t\t\tcontract DocumentVerifier {\\r\\...\n  PUSH 40\t\t\tcontract DocumentVerifier {\\r\\...\n  MSTORE \t\t\tcontract DocumentVerifier {\\r\\...\n  CALLVALUE \t\t\tcontract DocumentVerifier {\\r\\...\n  DUP1 \t\t\tcontract DocumentVerifier {\\r\\...\n  ISZERO \t\t\tcontract DocumentVerifier {\\r\\...\n  PUSH [tag] 1\t\t\tcontract DocumentVerifier {\\r\\...\n  JUMPI \t\t\tcontract DocumentVerifier {\\r\\...\n  PUSH 0\t\t\tcontract DocumentVerifier {\\r\\...\n  DUP1 \t\t\tcontract DocumentVerifier {\\r\\...\n  REVERT \t\t\tcontract DocumentVerifier {\\r\\...\ntag 1\t\t\tcontract DocumentVerifier {\\r\\...\n  JUMPDEST \t\t\tcontract DocumentVerifier {\\r\\...\n  POP \t\t\tcontract DocumentVerifier {\\r\\...\n  PUSH #[$] 0000000000000000000000000000000000000000000000000000000000000000\t\t\tcontract DocumentVerifier {\\r\\...\n  DUP1 \t\t\tcontract DocumentVerifier {\\r\\...\n  PUSH [$] 0000000000000000000000000000000000000000000000000000000000000000\t\t\tcontract DocumentVerifier {\\r\\...\n  PUSH 0\t\t\tcontract DocumentVerifier {\\r\\...\n  CODECOPY \t\t\tcontract DocumentVerifier {\\r\\...\n  PUSH 0\t\t\tcontract DocumentVerifier {\\r\\...\n  RETURN \t\t\tcontract DocumentVerifier {\\r\\...\n.data\n  0:\n    .code\n      PUSH 80\t\t\tcontract DocumentVerifier {\\r\\...\n      PUSH 40\t\t\tcontract DocumentVerifier {\\r\\...\n      MSTORE \t\t\tcontract DocumentVerifier {\\r\\...\n      CALLVALUE \t\t\tcontract DocumentVerifier {\\r\\...\n      DUP1 \t\t\tcontract DocumentVerifier {\\r\\...\n      ISZERO \t\t\tcontract DocumentVerifier {\\r\\...\n      PUSH [tag] 1\t\t\tcontract DocumentVerifier {\\r\\...\n      JUMPI \t\t\tcontract DocumentVerifier {\\r\\...\n      PUSH 0\t\t\tcontract DocumentVerifier {\\r\\...\n      DUP1 \t\t\tcontract DocumentVerifier {\\r\\...\n      REVERT \t\t\tcontract DocumentVerifier {\\r\\...\n    tag 1\t\t\tcontract DocumentVerifier {\\r\\...\n      JUMPDEST \t\t\tcontract DocumentVerifier {\\r\\...\n      POP \t\t\tcontract DocumentVerifier {\\r\\...\n      PUSH 4\t\t\tcontract DocumentVerifier {\\r\\...\n      CALLDATASIZE \t\t\tcontract DocumentVerifier {\\r\\...\n      LT \t\t\tcontract DocumentVerifier {\\r\\...\n      PUSH [tag] 2\t\t\tcontract DocumentVerifier {\\r\\...\n      JUMPI \t\t\tcontract DocumentVerifier {\\r\\...\n      PUSH 0\t\t\tcontract DocumentVerifier {\\r\\...\n      CALLDATALOAD \t\t\tcontract DocumentVerifier {\\r\\...\n      PUSH E0\t\t\tcontract DocumentVerifier {\\r\\...\n      SHR \t\t\tcontract DocumentVerifier {\\r\\...\n      DUP1 \t\t\tcontract DocumentVerifier {\\r\\...\n      PUSH 31CD4199\t\t\tcontract DocumentVerifier {\\r\\...\n      EQ \t\t\tcontract DocumentVerifier {\\r\\...\n      PUSH [tag] 3\t\t\tcontract DocumentVerifier {\\r\\...\n      JUMPI \t\t\tcontract DocumentVerifier {\\r\\...\n    tag 2\t\t\tcontract DocumentVerifier {\\r\\...\n      JUMPDEST \t\t\tcontract DocumentVerifier {\\r\\...\n      PUSH 0\t\t\tcontract DocumentVerifier {\\r\\...\n      DUP1 \t\t\tcontract DocumentVerifier {\\r\\...\n      REVERT \t\t\tcontract DocumentVerifier {\\r\\...\n    tag 3\t\t\tfunction verifySignature(\\r\\n ...\n      JUMPDEST \t\t\tfunction verifySignature(\\r\\n ...\n      PUSH [tag] 4\t\t\tfunction verifySignature(\\r\\n ...\n      PUSH 4\t\t\tfunction verifySignature(\\r\\n ...\n      DUP1 \t\t\tfunction verifySignature(\\r\\n ...\n      CALLDATASIZE \t\t\tfunction verifySignature(\\r\\n ...\n      SUB \t\t\tfunction verifySignature(\\r\\n ...\n      DUP2 \t\t\tfunction verifySignature(\\r\\n ...\n      ADD \t\t\tfunction verifySignature(\\r\\n ...\n      SWAP1 \t\t\tfunction verifySignature(\\r\\n ...\n      PUSH [tag] 5\t\t\tfunction verifySignature(\\r\\n ...\n      SWAP2 \t\t\tfunction verifySignature(\\r\\n ...\n      SWAP1 \t\t\tfunction verifySignature(\\r\\n ...\n      PUSH [tag] 6\t\t\tfunction verifySignature(\\r\\n ...\n      JUMP \t\t\tfunction verifySignature(\\r\\n ...\n    tag 5\t\t\tfunction verifySignature(\\r\\n ...\n      JUMPDEST \t\t\tfunction verifySignature(\\r\\n ...\n      PUSH [tag] 7\t\t\tfunction verifySignature(\\r\\n ...\n      JUMP \t\t\tfunction verifySignature(\\r\\n ...\n    tag 4\t\t\tfunction verifySignature(\\r\\n ...\n      JUMPDEST \t\t\tfunction verifySignature(\\r\\n ...\n      PUSH 40\t\t\tfunction verifySignature(\\r\\n ...\n      MLOAD \t\t\tfunction verifySignature(\\r\\n ...\n      PUSH [tag] 8\t\t\tfunction verifySignature(\\r\\n ...\n      SWAP2 \t\t\tfunction verifySignature(\\r\\n ...\n      SWAP1 \t\t\tfunction verifySignature(\\r\\n ...\n      PUSH [tag] 9\t\t\tfunction verifySignature(\\r\\n ...\n      JUMP \t\t\tfunction verifySignature(\\r\\n ...\n    tag 8\t\t\tfunction verifySignature(\\r\\n ...\n      JUMPDEST \t\t\tfunction verifySignature(\\r\\n ...\n      PUSH 40\t\t\tfunction verifySignature(\\r\\n ...\n      MLOAD \t\t\tfunction verifySignature(\\r\\n ...\n      DUP1 \t\t\tfunction verifySignature(\\r\\n ...\n      SWAP2 \t\t\tfunction verifySignature(\\r\\n ...\n      SUB \t\t\tfunction verifySignature(\\r\\n ...\n      SWAP1 \t\t\tfunction verifySignature(\\r\\n ...\n      RETURN \t\t\tfunction verifySignature(\\r\\n ...\n    tag 7\t\t\tfunction verifySignature(\\r\\n ...\n      JUMPDEST \t\t\tfunction verifySignature(\\r\\n ...\n      PUSH 0\t\t\tbool\n      DUP1 \t\t\t0\n      PUSH FFFFFFFFFFFFFFFFFFFFFFFFFFFFFFFFFFFFFFFF\t\t\tuser != address(0)\n      AND \t\t\tuser != address(0)\n      DUP3 \t\t\tuser\n      PUSH FFFFFFFFFFFFFFFFFFFFFFFFFFFFFFFFFFFFFFFF\t\t\tuser != address(0)\n      AND \t\t\tuser != address(0)\n      SUB \t\t\tuser != address(0)\n      PUSH [tag] 11\t\t\trequire(user != address(0), \"I...\n      JUMPI \t\t\trequire(user != address(0), \"I...\n      PUSH 40\t\t\trequire(user != address(0), \"I...\n      MLOAD \t\t\trequire(user != address(0), \"I...\n      PUSH 8C379A000000000000000000000000000000000000000000000000000000000\t\t\trequire(user != address(0), \"I...\n      DUP2 \t\t\trequire(user != address(0), \"I...\n      MSTORE \t\t\trequire(user != address(0), \"I...\n      PUSH 4\t\t\trequire(user != address(0), \"I...\n      ADD \t\t\trequire(user != address(0), \"I...\n      PUSH [tag] 12\t\t\trequire(user != address(0), \"I...\n      SWAP1 \t\t\trequire(user != address(0), \"I...\n      PUSH [tag] 13\t\t\trequire(user != address(0), \"I...\n      JUMP \t\t\trequire(user != address(0), \"I...\n    tag 12\t\t\trequire(user != address(0), \"I...\n      JUMPDEST \t\t\trequire(user != address(0), \"I...\n      PUSH 40\t\t\trequire(user != address(0), \"I...\n      MLOAD \t\t\trequire(user != address(0), \"I...\n      DUP1 \t\t\trequire(user != address(0), \"I...\n      SWAP2 \t\t\trequire(user != address(0), \"I...\n      SUB \t\t\trequire(user != address(0), \"I...\n      SWAP1 \t\t\trequire(user != address(0), \"I...\n      REVERT \t\t\trequire(user != address(0), \"I...\n    tag 11\t\t\trequire(user != address(0), \"I...\n      JUMPDEST \t\t\trequire(user != address(0), \"I...\n      PUSH 0\t\t\tbytes32 ethSignedMessageHash\n      PUSH [tag] 14\t\t\tgetEthSignedMessageHash(digest...\n      DUP6 \t\t\tdigest\n      PUSH [tag] 15\t\t\tgetEthSignedMessageHash\n      JUMP \t\t\tgetEthSignedMessageHash(digest...\n    tag 14\t\t\tgetEthSignedMessageHash(digest...\n      JUMPDEST \t\t\tgetEthSignedMessageHash(digest...\n      SWAP1 \t\t\tbytes32 ethSignedMessageHash =...\n      POP \t\t\tbytes32 ethSignedMessageHash =...\n      PUSH 0\t\t\taddress recoveredSigner\n      PUSH [tag] 16\t\t\trecoverSigner(ethSignedMessage...\n      DUP3 \t\t\tethSignedMessageHash\n      DUP7 \t\t\tsignature\n      PUSH [tag] 17\t\t\trecoverSigner\n      JUMP \t\t\trecoverSigner(ethSignedMessage...\n    tag 16\t\t\trecoverSigner(ethSignedMessage...\n      JUMPDEST \t\t\trecoverSigner(ethSignedMessage...\n      SWAP1 \t\t\taddress recoveredSigner = reco...\n      POP \t\t\taddress recoveredSigner = reco...\n      PUSH 0\t\t\tbool isValid\n      DUP5 \t\t\tuser\n      PUSH FFFFFFFFFFFFFFFFFFFFFFFFFFFFFFFFFFFFFFFF\t\t\trecoveredSigner == user\n      AND \t\t\trecoveredSigner == user\n      DUP3 \t\t\trecoveredSigner\n      PUSH FFFFFFFFFFFFFFFFFFFFFFFFFFFFFFFFFFFFFFFF\t\t\trecoveredSigner == user\n      AND \t\t\trecoveredSigner == user\n      EQ \t\t\trecoveredSigner == user\n      SWAP1 \t\t\tbool isValid = (recoveredSigne...\n      POP \t\t\tbool isValid = (recoveredSigne...\n      DUP5 \t\t\tuser\n      PUSH FFFFFFFFFFFFFFFFFFFFFFFFFFFFFFFFFFFFFFFF\t\t\tVerificationResult(user, diges...\n      AND \t\t\tVerificationResult(user, diges...\n      PUSH CA0A9B8F1B35F1CE4C0AECB7318368B99BBC367E574040EF75360762D43F5787\t\t\tVerificationResult(user, diges...\n      DUP9 \t\t\tdigest\n      DUP4 \t\t\tisValid\n      PUSH 40\t\t\tVerificationResult(user, diges...\n      MLOAD \t\t\tVerificationResult(user, diges...\n      PUSH [tag] 18\t\t\tVerificationResult(user, diges...\n      SWAP3 \t\t\tVerificationResult(user, diges...\n      SWAP2 \t\t\tVerificationResult(user, diges...\n      SWAP1 \t\t\tVerificationResult(user, diges...\n      PUSH [tag] 19\t\t\tVerificationResult(user, diges...\n      JUMP \t\t\tVerificationResult(user, diges...\n    tag 18\t\t\tVerificationResult(user, diges...\n      JUMPDEST \t\t\tVerificationResult(user, diges...\n      PUSH 40\t\t\tVerificationResult(user, diges...\n      MLOAD \t\t\tVerificationResult(user, diges...\n      DUP1 \t\t\tVerificationResult(user, diges...\n      SWAP2 \t\t\tVerificationResult(user, diges...\n      SUB \t\t\tVerificationResult(user, diges...\n      SWAP1 \t\t\tVerificationResult(user, diges...\n      LOG2 \t\t\tVerificationResult(user, diges...\n      DUP1 \t\t\tisValid\n      SWAP4 \t\t\treturn isValid\n      POP \t\t\treturn isValid\n      POP \t\t\treturn isValid\n      POP \t\t\treturn isValid\n      POP \t\t\treturn isValid\n      SWAP4 \t\t\tfunction verifySignature(\\r\\n ...\n      SWAP3 \t\t\tfunction verifySignature(\\r\\n ...\n      POP \t\t\tfunction verifySignature(\\r\\n ...\n      POP \t\t\tfunction verifySignature(\\r\\n ...\n      POP \t\t\tfunction verifySignature(\\r\\n ...\n      JUMP \t\t\tfunction verifySignature(\\r\\n ...\n    tag 15\t\t\tfunction getEthSignedMessageHa...\n      JUMPDEST \t\t\tfunction getEthSignedMessageHa...\n      PUSH 0\t\t\tbytes32\n      DUP2 \t\t\t_messageHash\n      PUSH 40\t\t\tabi.encodePacked(\"\\x19Ethereum...\n      MLOAD \t\t\tabi.encodePacked(\"\\x19Ethereum...\n      PUSH 20\t\t\tabi.encodePacked(\"\\x19Ethereum...\n      ADD \t\t\tabi.encodePacked(\"\\x19Ethereum...\n      PUSH [tag] 21\t\t\tabi.encodePacked(\"\\x19Ethereum...\n      SWAP2 \t\t\tabi.encodePacked(\"\\x19Ethereum...\n      SWAP1 \t\t\tabi.encodePacked(\"\\x19Ethereum...\n      PUSH [tag] 22\t\t\tabi.encodePacked(\"\\x19Ethereum...\n      JUMP \t\t\tabi.encodePacked(\"\\x19Ethereum...\n    tag 21\t\t\tabi.encodePacked(\"\\x19Ethereum...\n      JUMPDEST \t\t\tabi.encodePacked(\"\\x19Ethereum...\n      PUSH 40\t\t\tabi.encodePacked(\"\\x19Ethereum...\n      MLOAD \t\t\tabi.encodePacked(\"\\x19Ethereum...\n      PUSH 20\t\t\tabi.encodePacked(\"\\x19Ethereum...\n      DUP2 \t\t\tabi.encodePacked(\"\\x19Ethereum...\n      DUP4 \t\t\tabi.encodePacked(\"\\x19Ethereum...\n      SUB \t\t\tabi.encodePacked(\"\\x19Ethereum...\n      SUB \t\t\tabi.encodePacked(\"\\x19Ethereum...\n      DUP2 \t\t\tabi.encodePacked(\"\\x19Ethereum...\n      MSTORE \t\t\tabi.encodePacked(\"\\x19Ethereum...\n      SWAP1 \t\t\tabi.encodePacked(\"\\x19Ethereum...\n      PUSH 40\t\t\tabi.encodePacked(\"\\x19Ethereum...\n      MSTORE \t\t\tabi.encodePacked(\"\\x19Ethereum...\n      DUP1 \t\t\tkeccak256(abi.encodePacked(\"\\x...\n      MLOAD \t\t\tkeccak256(abi.encodePacked(\"\\x...\n      SWAP1 \t\t\tkeccak256(abi.encodePacked(\"\\x...\n      PUSH 20\t\t\tkeccak256(abi.encodePacked(\"\\x...\n      ADD \t\t\tkeccak256(abi.encodePacked(\"\\x...\n      KECCAK256 \t\t\tkeccak256(abi.encodePacked(\"\\x...\n      SWAP1 \t\t\treturn keccak256(abi.encodePac...\n      POP \t\t\treturn keccak256(abi.encodePac...\n      SWAP2 \t\t\tfunction getEthSignedMessageHa...\n      SWAP1 \t\t\tfunction getEthSignedMessageHa...\n      POP \t\t\tfunction getEthSignedMessageHa...\n      JUMP \t\t\tfunction getEthSignedMessageHa...\n    tag 17\t\t\tfunction recoverSigner(bytes32...\n      JUMPDEST \t\t\tfunction recoverSigner(bytes32...\n      PUSH 0\t\t\taddress\n      PUSH 41\t\t\t65\n      DUP3 \t\t\t_signature\n      MLOAD \t\t\t_signature.length\n      EQ \t\t\t_signature.length == 65\n      PUSH [tag] 24\t\t\trequire(_signature.length == 6...\n      JUMPI \t\t\trequire(_signature.length == 6...\n      PUSH 40\t\t\trequire(_signature.length == 6...\n      MLOAD \t\t\trequire(_signature.length == 6...\n      PUSH 8C379A000000000000000000000000000000000000000000000000000000000\t\t\trequire(_signature.length == 6...\n      DUP2 \t\t\trequire(_signature.length == 6...\n      MSTORE \t\t\trequire(_signature.length == 6...\n      PUSH 4\t\t\trequire(_signature.length == 6...\n      ADD \t\t\trequire(_signature.length == 6...\n      PUSH [tag] 25\t\t\trequire(_signature.length == 6...\n      SWAP1 \t\t\trequire(_signature.length == 6...\n      PUSH [tag] 26\t\t\trequire(_signature.length == 6...\n      JUMP \t\t\trequire(_signature.length == 6...\n    tag 25\t\t\trequire(_signature.length == 6...\n      JUMPDEST \t\t\trequire(_signature.length == 6...\n      PUSH 40\t\t\trequire(_signature.length == 6...\n      MLOAD \t\t\trequire(_signature.length == 6...\n      DUP1 \t\t\trequire(_signature.length == 6...\n      SWAP2 \t\t\trequire(_signature.length == 6...\n      SUB \t\t\trequire(_signature.length == 6...\n      SWAP1 \t\t\trequire(_signature.length == 6...\n      REVERT \t\t\trequire(_signature.length == 6...\n    tag 24\t\t\trequire(_signature.length == 6...\n      JUMPDEST \t\t\trequire(_signature.length == 6...\n      PUSH 0\t\t\tbytes32 r\n      DUP1 \t\t\tbytes32 s\n      PUSH 0\t\t\tuint8 v\n      PUSH 20\t\t\t32\n      DUP6 \t\t\t_signature\n      ADD \t\t\tadd(_signature, 32)\n      MLOAD \t\t\tmload(add(_signature, 32))\n      SWAP3 \t\t\tr := mload(add(_signature, 32)...\n      POP \t\t\tr := mload(add(_signature, 32)...\n      PUSH 40\t\t\t64\n      DUP6 \t\t\t_signature\n      ADD \t\t\tadd(_signature, 64)\n      MLOAD \t\t\tmload(add(_signature, 64))\n      SWAP2 \t\t\ts := mload(add(_signature, 64)...\n      POP \t\t\ts := mload(add(_signature, 64)...\n      PUSH 60\t\t\t96\n      DUP6 \t\t\t_signature\n      ADD \t\t\tadd(_signature, 96)\n      MLOAD \t\t\tmload(add(_signature, 96))\n      PUSH 0\t\t\t0\n      BYTE \t\t\tbyte(0, mload(add(_signature, ...\n      SWAP1 \t\t\tv := byte(0, mload(add(_signat...\n      POP \t\t\tv := byte(0, mload(add(_signat...\n      PUSH 1B\t\t\t27\n      DUP2 \t\t\tv\n      PUSH FF\t\t\tv < 27\n      AND \t\t\tv < 27\n      LT \t\t\tv < 27\n      ISZERO \t\t\tif (v < 27) {\\r\\n            v...\n      PUSH [tag] 27\t\t\tif (v < 27) {\\r\\n            v...\n      JUMPI \t\t\tif (v < 27) {\\r\\n            v...\n      PUSH 1B\t\t\t27\n      DUP2 \t\t\tv += 27\n      PUSH [tag] 28\t\t\tv += 27\n      SWAP2 \t\t\tv += 27\n      SWAP1 \t\t\tv += 27\n      PUSH [tag] 29\t\t\tv += 27\n      JUMP \t\t\tv += 27\n    tag 28\t\t\tv += 27\n      JUMPDEST \t\t\tv += 27\n      SWAP1 \t\t\tv += 27\n      POP \t\t\tv += 27\n    tag 27\t\t\tif (v < 27) {\\r\\n            v...\n      JUMPDEST \t\t\tif (v < 27) {\\r\\n            v...\n      PUSH 1B\t\t\t27\n      DUP2 \t\t\tv\n      PUSH FF\t\t\tv == 27\n      AND \t\t\tv == 27\n      EQ \t\t\tv == 27\n      DUP1 \t\t\tv == 27 || v == 28\n      PUSH [tag] 30\t\t\tv == 27 || v == 28\n      JUMPI \t\t\tv == 27 || v == 28\n      POP \t\t\tv == 27 || v == 28\n      PUSH 1C\t\t\t28\n      DUP2 \t\t\tv\n      PUSH FF\t\t\tv == 28\n      AND \t\t\tv == 28\n      EQ \t\t\tv == 28\n    tag 30\t\t\tv == 27 || v == 28\n      JUMPDEST \t\t\tv == 27 || v == 28\n      PUSH [tag] 31\t\t\trequire(v == 27 || v == 28, \"I...\n      JUMPI \t\t\trequire(v == 27 || v == 28, \"I...\n      PUSH 40\t\t\trequire(v == 27 || v == 28, \"I...\n      MLOAD \t\t\trequire(v == 27 || v == 28, \"I...\n      PUSH 8C379A000000000000000000000000000000000000000000000000000000000\t\t\trequire(v == 27 || v == 28, \"I...\n      DUP2 \t\t\trequire(v == 27 || v == 28, \"I...\n      MSTORE \t\t\trequire(v == 27 || v == 28, \"I...\n      PUSH 4\t\t\trequire(v == 27 || v == 28, \"I...\n      ADD \t\t\trequire(v == 27 || v == 28, \"I...\n      PUSH [tag] 32\t\t\trequire(v == 27 || v == 28, \"I...\n      SWAP1 \t\t\trequire(v == 27 || v == 28, \"I...\n      PUSH [tag] 33\t\t\trequire(v == 27 || v == 28, \"I...\n      JUMP \t\t\trequire(v == 27 || v == 28, \"I...\n    tag 32\t\t\trequire(v == 27 || v == 28, \"I...\n      JUMPDEST \t\t\trequire(v == 27 || v == 28, \"I...\n      PUSH 40\t\t\trequire(v == 27 || v == 28, \"I...\n      MLOAD \t\t\trequire(v == 27 || v == 28, \"I...\n      DUP1 \t\t\trequire(v == 27 || v == 28, \"I...\n      SWAP2 \t\t\trequire(v == 27 || v == 28, \"I...\n      SUB \t\t\trequire(v == 27 || v == 28, \"I...\n      SWAP1 \t\t\trequire(v == 27 || v == 28, \"I...\n      REVERT \t\t\trequire(v == 27 || v == 28, \"I...\n    tag 31\t\t\trequire(v == 27 || v == 28, \"I...\n      JUMPDEST \t\t\trequire(v == 27 || v == 28, \"I...\n      PUSH 1\t\t\tecrecover(_ethSignedMessageHas...\n      DUP7 \t\t\t_ethSignedMessageHash\n      DUP3 \t\t\tv\n      DUP6 \t\t\tr\n      DUP6 \t\t\ts\n      PUSH 40\t\t\tecrecover(_ethSignedMessageHas...\n      MLOAD \t\t\tecrecover(_ethSignedMessageHas...\n      PUSH 0\t\t\tecrecover(_ethSignedMessageHas...\n      DUP2 \t\t\tecrecover(_ethSignedMessageHas...\n      MSTORE \t\t\tecrecover(_ethSignedMessageHas...\n      PUSH 20\t\t\tecrecover(_ethSignedMessageHas...\n      ADD \t\t\tecrecover(_ethSignedMessageHas...\n      PUSH 40\t\t\tecrecover(_ethSignedMessageHas...\n      MSTORE \t\t\tecrecover(_ethSignedMessageHas...\n      PUSH 40\t\t\tecrecover(_ethSignedMessageHas...\n      MLOAD \t\t\tecrecover(_ethSignedMessageHas...\n      PUSH [tag] 34\t\t\tecrecover(_ethSignedMessageHas...\n      SWAP5 \t\t\tecrecover(_ethSignedMessageHas...\n      SWAP4 \t\t\tecrecover(_ethSignedMessageHas...\n      SWAP3 \t\t\tecrecover(_ethSignedMessageHas...\n      SWAP2 \t\t\tecrecover(_ethSignedMessageHas...\n      SWAP1 \t\t\tecrecover(_ethSignedMessageHas...\n      PUSH [tag] 35\t\t\tecrecover(_ethSignedMessageHas...\n      JUMP \t\t\tecrecover(_ethSignedMessageHas...\n    tag 34\t\t\tecrecover(_ethSignedMessageHas...\n      JUMPDEST \t\t\tecrecover(_ethSignedMessageHas...\n      PUSH 20\t\t\tecrecover(_ethSignedMessageHas...\n      PUSH 40\t\t\tecrecover(_ethSignedMessageHas...\n      MLOAD \t\t\tecrecover(_ethSignedMessageHas...\n      PUSH 20\t\t\tecrecover(_ethSignedMessageHas...\n      DUP2 \t\t\tecrecover(_ethSignedMessageHas...\n      SUB \t\t\tecrecover(_ethSignedMessageHas...\n      SWAP1 \t\t\tecrecover(_ethSignedMessageHas...\n      DUP1 \t\t\tecrecover(_ethSignedMessageHas...\n      DUP5 \t\t\tecrecover(_ethSignedMessageHas...\n      SUB \t\t\tecrecover(_ethSignedMessageHas...\n      SWAP1 \t\t\tecrecover(_ethSignedMessageHas...\n      DUP6 \t\t\tecrecover(_ethSignedMessageHas...\n      GAS \t\t\tecrecover(_ethSignedMessageHas...\n      STATICCALL \t\t\tecrecover(_ethSignedMessageHas...\n      ISZERO \t\t\tecrecover(_ethSignedMessageHas...\n      DUP1 \t\t\tecrecover(_ethSignedMessageHas...\n      ISZERO \t\t\tecrecover(_ethSignedMessageHas...\n      PUSH [tag] 37\t\t\tecrecover(_ethSignedMessageHas...\n      JUMPI \t\t\tecrecover(_ethSignedMessageHas...\n      RETURNDATASIZE \t\t\tecrecover(_ethSignedMessageHas...\n      PUSH 0\t\t\tecrecover(_ethSignedMessageHas...\n      DUP1 \t\t\tecrecover(_ethSignedMessageHas...\n      RETURNDATACOPY \t\t\tecrecover(_ethSignedMessageHas...\n      RETURNDATASIZE \t\t\tecrecover(_ethSignedMessageHas...\n      PUSH 0\t\t\tecrecover(_ethSignedMessageHas...\n      REVERT \t\t\tecrecover(_ethSignedMessageHas...\n    tag 37\t\t\tecrecover(_ethSignedMessageHas...\n      JUMPDEST \t\t\tecrecover(_ethSignedMessageHas...\n      POP \t\t\tecrecover(_ethSignedMessageHas...\n      POP \t\t\tecrecover(_ethSignedMessageHas...\n      POP \t\t\tecrecover(_ethSignedMessageHas...\n      PUSH 20\t\t\tecrecover(_ethSignedMessageHas...\n      PUSH 40\t\t\tecrecover(_ethSignedMessageHas...\n      MLOAD \t\t\tecrecover(_ethSignedMessageHas...\n      SUB \t\t\tecrecover(_ethSignedMessageHas...\n      MLOAD \t\t\tecrecover(_ethSignedMessageHas...\n      SWAP4 \t\t\treturn ecrecover(_ethSignedMes...\n      POP \t\t\treturn ecrecover(_ethSignedMes...\n      POP \t\t\treturn ecrecover(_ethSignedMes...\n      POP \t\t\treturn ecrecover(_ethSignedMes...\n      POP \t\t\treturn ecrecover(_ethSignedMes...\n      SWAP3 \t\t\tfunction recoverSigner(bytes32...\n      SWAP2 \t\t\tfunction recoverSigner(bytes32...\n      POP \t\t\tfunction recoverSigner(bytes32...\n      POP \t\t\tfunction recoverSigner(bytes32...\n      JUMP \t\t\tfunction recoverSigner(bytes32...\n    tag 38\t\t\t-License-Identifier: MIT\\r\\npr...\n      JUMPDEST \t\t\t-License-Identifier: MIT\\r\\npr...\n      PUSH 0\t\t\tsolidi\n      PUSH 40\t\t\tum\n      MLOAD \t\t\tct Docume\n      SWAP1 \t\t\t\\r\\n\\r\\ncontract Docume\n      POP \t\t\t\\r\\n\\r\\ncontract Docume\n      SWAP1 \t\t\t-License-Identifier: MIT\\r\\npr...\n      JUMP \t\t\t-License-Identifier: MIT\\r\\npr...\n    tag 39\t\t\t\\r\\n    event VerificationResu...\n      JUMPDEST \t\t\t\\r\\n    event VerificationResu...\n      PUSH 0\t\t\tg\n      DUP1 \t\t\ty\n      REVERT \t\t\tn verifySign\n    tag 40\t\t\t    bytes32 digest,\\r\\n       ...\n      JUMPDEST \t\t\t    bytes32 digest,\\r\\n       ...\n      PUSH 0\t\t\t \n      DUP1 \t\t\t\\n\n      REVERT \t\t\tool) {\\r\\n    \n    tag 41\t\t\tuser != address(0), \"Invalid u...\n      JUMPDEST \t\t\tuser != address(0), \"Invalid u...\n      PUSH 0\t\t\tress\");\n      DUP2 \t\t\ttes32\n      SWAP1 \t\t\t\\n        bytes32\n      POP \t\t\t\\n        bytes32\n      SWAP2 \t\t\tuser != address(0), \"Invalid u...\n      SWAP1 \t\t\tuser != address(0), \"Invalid u...\n      POP \t\t\tuser != address(0), \"Invalid u...\n      JUMP \t\t\tuser != address(0), \"Invalid u...\n    tag 42\t\t\tssageHash = getEthSignedMessag...\n      JUMPDEST \t\t\tssageHash = getEthSignedMessag...\n      PUSH [tag] 82\t\t\tgner = recoverSigner(eth\n      DUP2 \t\t\ter(et\n      PUSH [tag] 41\t\t\tgner = recoverSigner(eth\n      JUMP \t\t\tgner = recoverSigner(eth\n    tag 82\t\t\tgner = recoverSigner(eth\n      JUMPDEST \t\t\tgner = recoverSigner(eth\n      DUP2 \t\t\tvered\n      EQ \t\t\tecoveredSigner = recoverSigner...\n      PUSH [tag] 83\t\t\t address recoveredSigner = rec...\n      JUMPI \t\t\t address recoveredSigner = rec...\n      PUSH 0\t\t\ts\n      DUP1 \t\t\te\n      REVERT \t\t\tdMessageHash\n    tag 83\t\t\t address recoveredSigner = rec...\n      JUMPDEST \t\t\t address recoveredSigner = rec...\n      POP \t\t\tssageHash = getEthSignedMessag...\n      JUMP \t\t\tssageHash = getEthSignedMessag...\n    tag 43\t\t\t\\n        bool isValid = (reco...\n      JUMPDEST \t\t\t\\n        bool isValid = (reco...\n      PUSH 0\t\t\ter);\\r\n      DUP2 \t\t\tionRes\n      CALLDATALOAD \t\t\tmit VerificationResu\n      SWAP1 \t\t\t        emit VerificationResu\n      POP \t\t\t        emit VerificationResu\n      PUSH [tag] 85\t\t\tdigest, isValid);\\r\\n        r...\n      DUP2 \t\t\tretur\n      PUSH [tag] 42\t\t\tdigest, isValid);\\r\\n        r...\n      JUMP \t\t\tdigest, isValid);\\r\\n        r...\n    tag 85\t\t\tdigest, isValid);\\r\\n        r...\n      JUMPDEST \t\t\tdigest, isValid);\\r\\n        r...\n      SWAP3 \t\t\t\\n        bool isValid = (reco...\n      SWAP2 \t\t\t\\n        bool isValid = (reco...\n      POP \t\t\t\\n        bool isValid = (reco...\n      POP \t\t\t\\n        bool isValid = (reco...\n      JUMP \t\t\t\\n        bool isValid = (reco...\n    tag 44\t\t\t   }\\r\\n\\r\\n    function getEt...\n      JUMPDEST \t\t\t   }\\r\\n\\r\\n    function getEt...\n      PUSH 0\t\t\t \n      DUP1 \t\t\t \n      REVERT \t\t\t{\\r\\n        r\n    tag 45\t\t\t256(abi.encodePacked(\"\\x19Ethe...\n      JUMPDEST \t\t\t256(abi.encodePacked(\"\\x19Ethe...\n      PUSH 0\t\t\t(\n      DUP1 \t\t\tn\n      REVERT \t\t\toverSigner(b\n    tag 46\t\t\tignedMessageHash, bytes memory...\n      JUMPDEST \t\t\tignedMessageHash, bytes memory...\n      PUSH 0\t\t\t)\\r\\n   \n      PUSH 1F\t\t\t(a\n      NOT \t\t\trns (ad\n      PUSH 1F\t\t\t r\n      DUP4 \t\t\t     \n      ADD \t\t\tre\\r\\n        re\n      AND \t\t\t  pure\\r\\n        returns (add\n      SWAP1 \t\t\tal\\r\\n        pure\\r\\n        ...\n      POP \t\t\tal\\r\\n        pure\\r\\n        ...\n      SWAP2 \t\t\tignedMessageHash, bytes memory...\n      SWAP1 \t\t\tignedMessageHash, bytes memory...\n      POP \t\t\tignedMessageHash, bytes memory...\n      JUMP \t\t\tignedMessageHash, bytes memory...\n    tag 47\t\t\t\\r\\n        require(_signature...\n      JUMPDEST \t\t\t\\r\\n        require(_signature...\n      PUSH 4E487B7100000000000000000000000000000000000000000000000000000000\t\t\tlid signature length\");\\r\\n   ...\n      PUSH 0\t\t\tn\n      MSTORE \t\t\t 65, \"Invalid signature length...\n      PUSH 41\t\t\t    \n      PUSH 4\t\t\t \n      MSTORE \t\t\t8 v;\\r\\n        \\r\n      PUSH 24\t\t\t\\r\\n  \n      PUSH 0\t\t\ty\n      REVERT \t\t\tassembly {\\r\\n   \n    tag 48\t\t\t= mload(add(_signature, 32))\\r...\n      JUMPDEST \t\t\t= mload(add(_signature, 32))\\r...\n      PUSH [tag] 91\t\t\t    v := byte(0, mload(add(\n      DUP3 \t\t\t(add\n      PUSH [tag] 46\t\t\t    v := byte(0, mload(add(\n      JUMP \t\t\t    v := byte(0, mload(add(\n    tag 91\t\t\t    v := byte(0, mload(add(\n      JUMPDEST \t\t\t    v := byte(0, mload(add(\n      DUP2 \t\t\t      \n      ADD \t\t\t))\\r\\n            v := byte(0,...\n      DUP2 \t\t\t \\r\\n   \n      DUP2 \t\t\t  }\\r\\n     \n      LT \t\t\t     }\\r\\n        \\r\\n    \n      PUSH FFFFFFFFFFFFFFFF\t\t\t        v += 27;\\r\\n\n      DUP3 \t\t\t 27) {\\r\\n  \n      GT \t\t\tv < 27) {\\r\\n            v += ...\n      OR \t\t\tf (v < 27) {\\r\\n            v ...\n      ISZERO \t\t\t  if (v < 27) {\\r\\n           ...\n      PUSH [tag] 92\t\t\t  if (v < 27) {\\r\\n           ...\n      JUMPI \t\t\t  if (v < 27) {\\r\\n           ...\n      PUSH [tag] 93\t\t\trequire(v == 27 ||\n      PUSH [tag] 47\t\t\trequire(v == 27 ||\n      JUMP \t\t\trequire(v == 27 ||\n    tag 93\t\t\trequire(v == 27 ||\n      JUMPDEST \t\t\trequire(v == 27 ||\n    tag 92\t\t\t  if (v < 27) {\\r\\n           ...\n      JUMPDEST \t\t\t  if (v < 27) {\\r\\n           ...\n      DUP1 \t\t\tnature ver\n      PUSH 40\t\t\t s\n      MSTORE \t\t\tInvalid signature vers\n      POP \t\t\t := mload(add(_signature, 64))...\n      POP \t\t\t= mload(add(_signature, 32))\\r...\n      POP \t\t\t= mload(add(_signature, 32))\\r...\n      JUMP \t\t\t= mload(add(_signature, 32))\\r...\n    tag 49\t\t\t    \\r\\n        return ecrecov...\n      JUMPDEST \t\t\t    \\r\\n        return ecrecov...\n      PUSH 0\t\t\thSigne\n      PUSH [tag] 95\t\t\t);\\r\\n    }\\r\\n}\\r\\n\n      PUSH [tag] 38\t\t\t);\\r\\n    }\\r\\n}\\r\\n\n      JUMP \t\t\t);\\r\\n    }\\r\\n}\\r\\n\n    tag 95\t\t\t);\\r\\n    }\\r\\n}\\r\\n\n      JUMPDEST \t\t\t);\\r\\n    }\\r\\n}\\r\\n\n      SWAP1 \t\t\th, v, r, s);\\r\\n    }\\r\\n}\\r\\n\n      POP \t\t\th, v, r, s);\\r\\n    }\\r\\n}\\r\\n\n      PUSH [tag] 96\t\t\t\n      DUP3 \t\t\t\n      DUP3 \t\t\t\n      PUSH [tag] 48\t\t\t\n      JUMP \t\t\t\n    tag 96\t\t\t\n      JUMPDEST \t\t\t\n      SWAP2 \t\t\t    \\r\\n        return ecrecov...\n      SWAP1 \t\t\t    \\r\\n        return ecrecov...\n      POP \t\t\t    \\r\\n        return ecrecov...\n      JUMP \t\t\t    \\r\\n        return ecrecov...\n    tag 50\t\t\t\n      JUMPDEST \t\t\t\n      PUSH 0\t\t\t\n      PUSH FFFFFFFFFFFFFFFF\t\t\t\n      DUP3 \t\t\t\n      GT \t\t\t\n      ISZERO \t\t\t\n      PUSH [tag] 98\t\t\t\n      JUMPI \t\t\t\n      PUSH [tag] 99\t\t\t\n      PUSH [tag] 47\t\t\t\n      JUMP \t\t\t\n    tag 99\t\t\t\n      JUMPDEST \t\t\t\n    tag 98\t\t\t\n      JUMPDEST \t\t\t\n      PUSH [tag] 100\t\t\t\n      DUP3 \t\t\t\n      PUSH [tag] 46\t\t\t\n      JUMP \t\t\t\n    tag 100\t\t\t\n      JUMPDEST \t\t\t\n      SWAP1 \t\t\t\n      POP \t\t\t\n      PUSH 20\t\t\t\n      DUP2 \t\t\t\n      ADD \t\t\t\n      SWAP1 \t\t\t\n      POP \t\t\t\n      SWAP2 \t\t\t\n      SWAP1 \t\t\t\n      POP \t\t\t\n      JUMP \t\t\t\n    tag 51\t\t\t\n      JUMPDEST \t\t\t\n      DUP3 \t\t\t\n      DUP2 \t\t\t\n      DUP4 \t\t\t\n      CALLDATACOPY \t\t\t\n      PUSH 0\t\t\t\n      DUP4 \t\t\t\n      DUP4 \t\t\t\n      ADD \t\t\t\n      MSTORE \t\t\t\n      POP \t\t\t\n      POP \t\t\t\n      POP \t\t\t\n      JUMP \t\t\t\n    tag 52\t\t\t\n      JUMPDEST \t\t\t\n      PUSH 0\t\t\t\n      PUSH [tag] 103\t\t\t\n      PUSH [tag] 104\t\t\t\n      DUP5 \t\t\t\n      PUSH [tag] 50\t\t\t\n      JUMP \t\t\t\n    tag 104\t\t\t\n      JUMPDEST \t\t\t\n      PUSH [tag] 49\t\t\t\n      JUMP \t\t\t\n    tag 103\t\t\t\n      JUMPDEST \t\t\t\n      SWAP1 \t\t\t\n      POP \t\t\t\n      DUP3 \t\t\t\n      DUP2 \t\t\t\n      MSTORE \t\t\t\n      PUSH 20\t\t\t\n      DUP2 \t\t\t\n      ADD \t\t\t\n      DUP5 \t\t\t\n      DUP5 \t\t\t\n      DUP5 \t\t\t\n      ADD \t\t\t\n      GT \t\t\t\n      ISZERO \t\t\t\n      PUSH [tag] 105\t\t\t\n      JUMPI \t\t\t\n      PUSH [tag] 106\t\t\t\n      PUSH [tag] 45\t\t\t\n      JUMP \t\t\t\n    tag 106\t\t\t\n      JUMPDEST \t\t\t\n    tag 105\t\t\t\n      JUMPDEST \t\t\t\n      PUSH [tag] 107\t\t\t\n      DUP5 \t\t\t\n      DUP3 \t\t\t\n      DUP6 \t\t\t\n      PUSH [tag] 51\t\t\t\n      JUMP \t\t\t\n    tag 107\t\t\t\n      JUMPDEST \t\t\t\n      POP \t\t\t\n      SWAP4 \t\t\t\n      SWAP3 \t\t\t\n      POP \t\t\t\n      POP \t\t\t\n      POP \t\t\t\n      JUMP \t\t\t\n    tag 53\t\t\t\n      JUMPDEST \t\t\t\n      PUSH 0\t\t\t\n      DUP3 \t\t\t\n      PUSH 1F\t\t\t\n      DUP4 \t\t\t\n      ADD \t\t\t\n      SLT \t\t\t\n      PUSH [tag] 109\t\t\t\n      JUMPI \t\t\t\n      PUSH [tag] 110\t\t\t\n      PUSH [tag] 44\t\t\t\n      JUMP \t\t\t\n    tag 110\t\t\t\n      JUMPDEST \t\t\t\n    tag 109\t\t\t\n      JUMPDEST \t\t\t\n      DUP2 \t\t\t\n      CALLDATALOAD \t\t\t\n      PUSH [tag] 111\t\t\t\n      DUP5 \t\t\t\n      DUP3 \t\t\t\n      PUSH 20\t\t\t\n      DUP7 \t\t\t\n      ADD \t\t\t\n      PUSH [tag] 52\t\t\t\n      JUMP \t\t\t\n    tag 111\t\t\t\n      JUMPDEST \t\t\t\n      SWAP2 \t\t\t\n      POP \t\t\t\n      POP \t\t\t\n      SWAP3 \t\t\t\n      SWAP2 \t\t\t\n      POP \t\t\t\n      POP \t\t\t\n      JUMP \t\t\t\n    tag 54\t\t\t\n      JUMPDEST \t\t\t\n      PUSH 0\t\t\t\n      PUSH FFFFFFFFFFFFFFFFFFFFFFFFFFFFFFFFFFFFFFFF\t\t\t\n      DUP3 \t\t\t\n      AND \t\t\t\n      SWAP1 \t\t\t\n      POP \t\t\t\n      SWAP2 \t\t\t\n      SWAP1 \t\t\t\n      POP \t\t\t\n      JUMP \t\t\t\n    tag 55\t\t\t\n      JUMPDEST \t\t\t\n      PUSH 0\t\t\t\n      PUSH [tag] 114\t\t\t\n      DUP3 \t\t\t\n      PUSH [tag] 54\t\t\t\n      JUMP \t\t\t\n    tag 114\t\t\t\n      JUMPDEST \t\t\t\n      SWAP1 \t\t\t\n      POP \t\t\t\n      SWAP2 \t\t\t\n      SWAP1 \t\t\t\n      POP \t\t\t\n      JUMP \t\t\t\n    tag 56\t\t\t\n      JUMPDEST \t\t\t\n      PUSH [tag] 116\t\t\t\n      DUP2 \t\t\t\n      PUSH [tag] 55\t\t\t\n      JUMP \t\t\t\n    tag 116\t\t\t\n      JUMPDEST \t\t\t\n      DUP2 \t\t\t\n      EQ \t\t\t\n      PUSH [tag] 117\t\t\t\n      JUMPI \t\t\t\n      PUSH 0\t\t\t\n      DUP1 \t\t\t\n      REVERT \t\t\t\n    tag 117\t\t\t\n      JUMPDEST \t\t\t\n      POP \t\t\t\n      JUMP \t\t\t\n    tag 57\t\t\t\n      JUMPDEST \t\t\t\n      PUSH 0\t\t\t\n      DUP2 \t\t\t\n      CALLDATALOAD \t\t\t\n      SWAP1 \t\t\t\n      POP \t\t\t\n      PUSH [tag] 119\t\t\t\n      DUP2 \t\t\t\n      PUSH [tag] 56\t\t\t\n      JUMP \t\t\t\n    tag 119\t\t\t\n      JUMPDEST \t\t\t\n      SWAP3 \t\t\t\n      SWAP2 \t\t\t\n      POP \t\t\t\n      POP \t\t\t\n      JUMP \t\t\t\n    tag 6\t\t\t\n      JUMPDEST \t\t\t\n      PUSH 0\t\t\t\n      DUP1 \t\t\t\n      PUSH 0\t\t\t\n      PUSH 60\t\t\t\n      DUP5 \t\t\t\n      DUP7 \t\t\t\n      SUB \t\t\t\n      SLT \t\t\t\n      ISZERO \t\t\t\n      PUSH [tag] 121\t\t\t\n      JUMPI \t\t\t\n      PUSH [tag] 122\t\t\t\n      PUSH [tag] 39\t\t\t\n      JUMP \t\t\t\n    tag 122\t\t\t\n      JUMPDEST \t\t\t\n    tag 121\t\t\t\n      JUMPDEST \t\t\t\n      PUSH 0\t\t\t\n      PUSH [tag] 123\t\t\t\n      DUP7 \t\t\t\n      DUP3 \t\t\t\n      DUP8 \t\t\t\n      ADD \t\t\t\n      PUSH [tag] 43\t\t\t\n      JUMP \t\t\t\n    tag 123\t\t\t\n      JUMPDEST \t\t\t\n      SWAP4 \t\t\t\n      POP \t\t\t\n      POP \t\t\t\n      PUSH 20\t\t\t\n      DUP5 \t\t\t\n      ADD \t\t\t\n      CALLDATALOAD \t\t\t\n      PUSH FFFFFFFFFFFFFFFF\t\t\t\n      DUP2 \t\t\t\n      GT \t\t\t\n      ISZERO \t\t\t\n      PUSH [tag] 124\t\t\t\n      JUMPI \t\t\t\n      PUSH [tag] 125\t\t\t\n      PUSH [tag] 40\t\t\t\n      JUMP \t\t\t\n    tag 125\t\t\t\n      JUMPDEST \t\t\t\n    tag 124\t\t\t\n      JUMPDEST \t\t\t\n      PUSH [tag] 126\t\t\t\n      DUP7 \t\t\t\n      DUP3 \t\t\t\n      DUP8 \t\t\t\n      ADD \t\t\t\n      PUSH [tag] 53\t\t\t\n      JUMP \t\t\t\n    tag 126\t\t\t\n      JUMPDEST \t\t\t\n      SWAP3 \t\t\t\n      POP \t\t\t\n      POP \t\t\t\n      PUSH 40\t\t\t\n      PUSH [tag] 127\t\t\t\n      DUP7 \t\t\t\n      DUP3 \t\t\t\n      DUP8 \t\t\t\n      ADD \t\t\t\n      PUSH [tag] 57\t\t\t\n      JUMP \t\t\t\n    tag 127\t\t\t\n      JUMPDEST \t\t\t\n      SWAP2 \t\t\t\n      POP \t\t\t\n      POP \t\t\t\n      SWAP3 \t\t\t\n      POP \t\t\t\n      SWAP3 \t\t\t\n      POP \t\t\t\n      SWAP3 \t\t\t\n      JUMP \t\t\t\n    tag 58\t\t\t\n      JUMPDEST \t\t\t\n      PUSH 0\t\t\t\n      DUP2 \t\t\t\n      ISZERO \t\t\t\n      ISZERO \t\t\t\n      SWAP1 \t\t\t\n      POP \t\t\t\n      SWAP2 \t\t\t\n      SWAP1 \t\t\t\n      POP \t\t\t\n      JUMP \t\t\t\n    tag 59\t\t\t\n      JUMPDEST \t\t\t\n      PUSH [tag] 130\t\t\t\n      DUP2 \t\t\t\n      PUSH [tag] 58\t\t\t\n      JUMP \t\t\t\n    tag 130\t\t\t\n      JUMPDEST \t\t\t\n      DUP3 \t\t\t\n      MSTORE \t\t\t\n      POP \t\t\t\n      POP \t\t\t\n      JUMP \t\t\t\n    tag 9\t\t\t\n      JUMPDEST \t\t\t\n      PUSH 0\t\t\t\n      PUSH 20\t\t\t\n      DUP3 \t\t\t\n      ADD \t\t\t\n      SWAP1 \t\t\t\n      POP \t\t\t\n      PUSH [tag] 132\t\t\t\n      PUSH 0\t\t\t\n      DUP4 \t\t\t\n      ADD \t\t\t\n      DUP5 \t\t\t\n      PUSH [tag] 59\t\t\t\n      JUMP \t\t\t\n    tag 132\t\t\t\n      JUMPDEST \t\t\t\n      SWAP3 \t\t\t\n      SWAP2 \t\t\t\n      POP \t\t\t\n      POP \t\t\t\n      JUMP \t\t\t\n    tag 60\t\t\t\n      JUMPDEST \t\t\t\n      PUSH 0\t\t\t\n      DUP3 \t\t\t\n      DUP3 \t\t\t\n      MSTORE \t\t\t\n      PUSH 20\t\t\t\n      DUP3 \t\t\t\n      ADD \t\t\t\n      SWAP1 \t\t\t\n      POP \t\t\t\n      SWAP3 \t\t\t\n      SWAP2 \t\t\t\n      POP \t\t\t\n      POP \t\t\t\n      JUMP \t\t\t\n    tag 61\t\t\t\n      JUMPDEST \t\t\t\n      PUSH 496E76616C696420757365722061646472657373000000000000000000000000\t\t\t\n      PUSH 0\t\t\t\n      DUP3 \t\t\t\n      ADD \t\t\t\n      MSTORE \t\t\t\n      POP \t\t\t\n      JUMP \t\t\t\n    tag 62\t\t\t\n      JUMPDEST \t\t\t\n      PUSH 0\t\t\t\n      PUSH [tag] 136\t\t\t\n      PUSH 14\t\t\t\n      DUP4 \t\t\t\n      PUSH [tag] 60\t\t\t\n      JUMP \t\t\t\n    tag 136\t\t\t\n      JUMPDEST \t\t\t\n      SWAP2 \t\t\t\n      POP \t\t\t\n      PUSH [tag] 137\t\t\t\n      DUP3 \t\t\t\n      PUSH [tag] 61\t\t\t\n      JUMP \t\t\t\n    tag 137\t\t\t\n      JUMPDEST \t\t\t\n      PUSH 20\t\t\t\n      DUP3 \t\t\t\n      ADD \t\t\t\n      SWAP1 \t\t\t\n      POP \t\t\t\n      SWAP2 \t\t\t\n      SWAP1 \t\t\t\n      POP \t\t\t\n      JUMP \t\t\t\n    tag 13\t\t\t\n      JUMPDEST \t\t\t\n      PUSH 0\t\t\t\n      PUSH 20\t\t\t\n      DUP3 \t\t\t\n      ADD \t\t\t\n      SWAP1 \t\t\t\n      POP \t\t\t\n      DUP2 \t\t\t\n      DUP2 \t\t\t\n      SUB \t\t\t\n      PUSH 0\t\t\t\n      DUP4 \t\t\t\n      ADD \t\t\t\n      MSTORE \t\t\t\n      PUSH [tag] 139\t\t\t\n      DUP2 \t\t\t\n      PUSH [tag] 62\t\t\t\n      JUMP \t\t\t\n    tag 139\t\t\t\n      JUMPDEST \t\t\t\n      SWAP1 \t\t\t\n      POP \t\t\t\n      SWAP2 \t\t\t\n      SWAP1 \t\t\t\n      POP \t\t\t\n      JUMP \t\t\t\n    tag 63\t\t\t\n      JUMPDEST \t\t\t\n      PUSH [tag] 141\t\t\t\n      DUP2 \t\t\t\n      PUSH [tag] 41\t\t\t\n      JUMP \t\t\t\n    tag 141\t\t\t\n      JUMPDEST \t\t\t\n      DUP3 \t\t\t\n      MSTORE \t\t\t\n      POP \t\t\t\n      POP \t\t\t\n      JUMP \t\t\t\n    tag 19\t\t\t\n      JUMPDEST \t\t\t\n      PUSH 0\t\t\t\n      PUSH 40\t\t\t\n      DUP3 \t\t\t\n      ADD \t\t\t\n      SWAP1 \t\t\t\n      POP \t\t\t\n      PUSH [tag] 143\t\t\t\n      PUSH 0\t\t\t\n      DUP4 \t\t\t\n      ADD \t\t\t\n      DUP6 \t\t\t\n      PUSH [tag] 63\t\t\t\n      JUMP \t\t\t\n    tag 143\t\t\t\n      JUMPDEST \t\t\t\n      PUSH [tag] 144\t\t\t\n      PUSH 20\t\t\t\n      DUP4 \t\t\t\n      ADD \t\t\t\n      DUP5 \t\t\t\n      PUSH [tag] 59\t\t\t\n      JUMP \t\t\t\n    tag 144\t\t\t\n      JUMPDEST \t\t\t\n      SWAP4 \t\t\t\n      SWAP3 \t\t\t\n      POP \t\t\t\n      POP \t\t\t\n      POP \t\t\t\n      JUMP \t\t\t\n    tag 64\t\t\t\n      JUMPDEST \t\t\t\n      PUSH 0\t\t\t\n      DUP2 \t\t\t\n      SWAP1 \t\t\t\n      POP \t\t\t\n      SWAP3 \t\t\t\n      SWAP2 \t\t\t\n      POP \t\t\t\n      POP \t\t\t\n      JUMP \t\t\t\n    tag 65\t\t\t\n      JUMPDEST \t\t\t\n      PUSH 19457468657265756D205369676E6564204D6573736167653A0A333200000000\t\t\t\n      PUSH 0\t\t\t\n      DUP3 \t\t\t\n      ADD \t\t\t\n      MSTORE \t\t\t\n      POP \t\t\t\n      JUMP \t\t\t\n    tag 66\t\t\t\n      JUMPDEST \t\t\t\n      PUSH 0\t\t\t\n      PUSH [tag] 148\t\t\t\n      PUSH 1C\t\t\t\n      DUP4 \t\t\t\n      PUSH [tag] 64\t\t\t\n      JUMP \t\t\t\n    tag 148\t\t\t\n      JUMPDEST \t\t\t\n      SWAP2 \t\t\t\n      POP \t\t\t\n      PUSH [tag] 149\t\t\t\n      DUP3 \t\t\t\n      PUSH [tag] 65\t\t\t\n      JUMP \t\t\t\n    tag 149\t\t\t\n      JUMPDEST \t\t\t\n      PUSH 1C\t\t\t\n      DUP3 \t\t\t\n      ADD \t\t\t\n      SWAP1 \t\t\t\n      POP \t\t\t\n      SWAP2 \t\t\t\n      SWAP1 \t\t\t\n      POP \t\t\t\n      JUMP \t\t\t\n    tag 67\t\t\t\n      JUMPDEST \t\t\t\n      PUSH 0\t\t\t\n      DUP2 \t\t\t\n      SWAP1 \t\t\t\n      POP \t\t\t\n      SWAP2 \t\t\t\n      SWAP1 \t\t\t\n      POP \t\t\t\n      JUMP \t\t\t\n    tag 68\t\t\t\n      JUMPDEST \t\t\t\n      PUSH [tag] 152\t\t\t\n      PUSH [tag] 153\t\t\t\n      DUP3 \t\t\t\n      PUSH [tag] 41\t\t\t\n      JUMP \t\t\t\n    tag 153\t\t\t\n      JUMPDEST \t\t\t\n      PUSH [tag] 67\t\t\t\n      JUMP \t\t\t\n    tag 152\t\t\t\n      JUMPDEST \t\t\t\n      DUP3 \t\t\t\n      MSTORE \t\t\t\n      POP \t\t\t\n      POP \t\t\t\n      JUMP \t\t\t\n    tag 22\t\t\t\n      JUMPDEST \t\t\t\n      PUSH 0\t\t\t\n      PUSH [tag] 155\t\t\t\n      DUP3 \t\t\t\n      PUSH [tag] 66\t\t\t\n      JUMP \t\t\t\n    tag 155\t\t\t\n      JUMPDEST \t\t\t\n      SWAP2 \t\t\t\n      POP \t\t\t\n      PUSH [tag] 156\t\t\t\n      DUP3 \t\t\t\n      DUP5 \t\t\t\n      PUSH [tag] 68\t\t\t\n      JUMP \t\t\t\n    tag 156\t\t\t\n      JUMPDEST \t\t\t\n      PUSH 20\t\t\t\n      DUP3 \t\t\t\n      ADD \t\t\t\n      SWAP2 \t\t\t\n      POP \t\t\t\n      DUP2 \t\t\t\n      SWAP1 \t\t\t\n      POP \t\t\t\n      SWAP3 \t\t\t\n      SWAP2 \t\t\t\n      POP \t\t\t\n      POP \t\t\t\n      JUMP \t\t\t\n    tag 69\t\t\t\n      JUMPDEST \t\t\t\n      PUSH 496E76616C6964207369676E6174757265206C656E6774680000000000000000\t\t\t\n      PUSH 0\t\t\t\n      DUP3 \t\t\t\n      ADD \t\t\t\n      MSTORE \t\t\t\n      POP \t\t\t\n      JUMP \t\t\t\n    tag 70\t\t\t\n      JUMPDEST \t\t\t\n      PUSH 0\t\t\t\n      PUSH [tag] 159\t\t\t\n      PUSH 18\t\t\t\n      DUP4 \t\t\t\n      PUSH [tag] 60\t\t\t\n      JUMP \t\t\t\n    tag 159\t\t\t\n      JUMPDEST \t\t\t\n      SWAP2 \t\t\t\n      POP \t\t\t\n      PUSH [tag] 160\t\t\t\n      DUP3 \t\t\t\n      PUSH [tag] 69\t\t\t\n      JUMP \t\t\t\n    tag 160\t\t\t\n      JUMPDEST \t\t\t\n      PUSH 20\t\t\t\n      DUP3 \t\t\t\n      ADD \t\t\t\n      SWAP1 \t\t\t\n      POP \t\t\t\n      SWAP2 \t\t\t\n      SWAP1 \t\t\t\n      POP \t\t\t\n      JUMP \t\t\t\n    tag 26\t\t\t\n      JUMPDEST \t\t\t\n      PUSH 0\t\t\t\n      PUSH 20\t\t\t\n      DUP3 \t\t\t\n      ADD \t\t\t\n      SWAP1 \t\t\t\n      POP \t\t\t\n      DUP2 \t\t\t\n      DUP2 \t\t\t\n      SUB \t\t\t\n      PUSH 0\t\t\t\n      DUP4 \t\t\t\n      ADD \t\t\t\n      MSTORE \t\t\t\n      PUSH [tag] 162\t\t\t\n      DUP2 \t\t\t\n      PUSH [tag] 70\t\t\t\n      JUMP \t\t\t\n    tag 162\t\t\t\n      JUMPDEST \t\t\t\n      SWAP1 \t\t\t\n      POP \t\t\t\n      SWAP2 \t\t\t\n      SWAP1 \t\t\t\n      POP \t\t\t\n      JUMP \t\t\t\n    tag 71\t\t\t\n      JUMPDEST \t\t\t\n      PUSH 0\t\t\t\n      PUSH FF\t\t\t\n      DUP3 \t\t\t\n      AND \t\t\t\n      SWAP1 \t\t\t\n      POP \t\t\t\n      SWAP2 \t\t\t\n      SWAP1 \t\t\t\n      POP \t\t\t\n      JUMP \t\t\t\n    tag 72\t\t\t\n      JUMPDEST \t\t\t\n      PUSH 4E487B7100000000000000000000000000000000000000000000000000000000\t\t\t\n      PUSH 0\t\t\t\n      MSTORE \t\t\t\n      PUSH 11\t\t\t\n      PUSH 4\t\t\t\n      MSTORE \t\t\t\n      PUSH 24\t\t\t\n      PUSH 0\t\t\t\n      REVERT \t\t\t\n    tag 29\t\t\t\n      JUMPDEST \t\t\t\n      PUSH 0\t\t\t\n      PUSH [tag] 166\t\t\t\n      DUP3 \t\t\t\n      PUSH [tag] 71\t\t\t\n      JUMP \t\t\t\n    tag 166\t\t\t\n      JUMPDEST \t\t\t\n      SWAP2 \t\t\t\n      POP \t\t\t\n      PUSH [tag] 167\t\t\t\n      DUP4 \t\t\t\n      PUSH [tag] 71\t\t\t\n      JUMP \t\t\t\n    tag 167\t\t\t\n      JUMPDEST \t\t\t\n      SWAP3 \t\t\t\n      POP \t\t\t\n      DUP3 \t\t\t\n      DUP3 \t\t\t\n      ADD \t\t\t\n      SWAP1 \t\t\t\n      POP \t\t\t\n      PUSH FF\t\t\t\n      DUP2 \t\t\t\n      GT \t\t\t\n      ISZERO \t\t\t\n      PUSH [tag] 168\t\t\t\n      JUMPI \t\t\t\n      PUSH [tag] 169\t\t\t\n      PUSH [tag] 72\t\t\t\n      JUMP \t\t\t\n    tag 169\t\t\t\n      JUMPDEST \t\t\t\n    tag 168\t\t\t\n      JUMPDEST \t\t\t\n      SWAP3 \t\t\t\n      SWAP2 \t\t\t\n      POP \t\t\t\n      POP \t\t\t\n      JUMP \t\t\t\n    tag 73\t\t\t\n      JUMPDEST \t\t\t\n      PUSH 496E76616C6964207369676E61747572652076657273696F6E00000000000000\t\t\t\n      PUSH 0\t\t\t\n      DUP3 \t\t\t\n      ADD \t\t\t\n      MSTORE \t\t\t\n      POP \t\t\t\n      JUMP \t\t\t\n    tag 74\t\t\t\n      JUMPDEST \t\t\t\n      PUSH 0\t\t\t\n      PUSH [tag] 172\t\t\t\n      PUSH 19\t\t\t\n      DUP4 \t\t\t\n      PUSH [tag] 60\t\t\t\n      JUMP \t\t\t\n    tag 172\t\t\t\n      JUMPDEST \t\t\t\n      SWAP2 \t\t\t\n      POP \t\t\t\n      PUSH [tag] 173\t\t\t\n      DUP3 \t\t\t\n      PUSH [tag] 73\t\t\t\n      JUMP \t\t\t\n    tag 173\t\t\t\n      JUMPDEST \t\t\t\n      PUSH 20\t\t\t\n      DUP3 \t\t\t\n      ADD \t\t\t\n      SWAP1 \t\t\t\n      POP \t\t\t\n      SWAP2 \t\t\t\n      SWAP1 \t\t\t\n      POP \t\t\t\n      JUMP \t\t\t\n    tag 33\t\t\t\n      JUMPDEST \t\t\t\n      PUSH 0\t\t\t\n      PUSH 20\t\t\t\n      DUP3 \t\t\t\n      ADD \t\t\t\n      SWAP1 \t\t\t\n      POP \t\t\t\n      DUP2 \t\t\t\n      DUP2 \t\t\t\n      SUB \t\t\t\n      PUSH 0\t\t\t\n      DUP4 \t\t\t\n      ADD \t\t\t\n      MSTORE \t\t\t\n      PUSH [tag] 175\t\t\t\n      DUP2 \t\t\t\n      PUSH [tag] 74\t\t\t\n      JUMP \t\t\t\n    tag 175\t\t\t\n      JUMPDEST \t\t\t\n      SWAP1 \t\t\t\n      POP \t\t\t\n      SWAP2 \t\t\t\n      SWAP1 \t\t\t\n      POP \t\t\t\n      JUMP \t\t\t\n    tag 75\t\t\t\n      JUMPDEST \t\t\t\n      PUSH [tag] 177\t\t\t\n      DUP2 \t\t\t\n      PUSH [tag] 71\t\t\t\n      JUMP \t\t\t\n    tag 177\t\t\t\n      JUMPDEST \t\t\t\n      DUP3 \t\t\t\n      MSTORE \t\t\t\n      POP \t\t\t\n      POP \t\t\t\n      JUMP \t\t\t\n    tag 35\t\t\t\n      JUMPDEST \t\t\t\n      PUSH 0\t\t\t\n      PUSH 80\t\t\t\n      DUP3 \t\t\t\n      ADD \t\t\t\n      SWAP1 \t\t\t\n      POP \t\t\t\n      PUSH [tag] 179\t\t\t\n      PUSH 0\t\t\t\n      DUP4 \t\t\t\n      ADD \t\t\t\n      DUP8 \t\t\t\n      PUSH [tag] 63\t\t\t\n      JUMP \t\t\t\n    tag 179\t\t\t\n      JUMPDEST \t\t\t\n      PUSH [tag] 180\t\t\t\n      PUSH 20\t\t\t\n      DUP4 \t\t\t\n      ADD \t\t\t\n      DUP7 \t\t\t\n      PUSH [tag] 75\t\t\t\n      JUMP \t\t\t\n    tag 180\t\t\t\n      JUMPDEST \t\t\t\n      PUSH [tag] 181\t\t\t\n      PUSH 40\t\t\t\n      DUP4 \t\t\t\n      ADD \t\t\t\n      DUP6 \t\t\t\n      PUSH [tag] 63\t\t\t\n      JUMP \t\t\t\n    tag 181\t\t\t\n      JUMPDEST \t\t\t\n      PUSH [tag] 182\t\t\t\n      PUSH 60\t\t\t\n      DUP4 \t\t\t\n      ADD \t\t\t\n      DUP5 \t\t\t\n      PUSH [tag] 63\t\t\t\n      JUMP \t\t\t\n    tag 182\t\t\t\n      JUMPDEST \t\t\t\n      SWAP6 \t\t\t\n      SWAP5 \t\t\t\n      POP \t\t\t\n      POP \t\t\t\n      POP \t\t\t\n      POP \t\t\t\n      POP \t\t\t\n      JUMP \t\t\t\n    .data\n"
}